{
  "_format": "hh-sol-artifact-1",
  "contractName": "ProofOfExistence",
  "sourceName": "contracts/ProofOfExistence.sol",
  "abi": [
    {
      "inputs": [
        {
          "internalType": "address",
          "name": "_time26",
          "type": "address"
        },
        {
          "internalType": "address",
          "name": "_treasury",
          "type": "address"
        },
        {
          "internalType": "address",
          "name": "_initialOwner",
          "type": "address"
        }
      ],
      "stateMutability": "nonpayable",
      "type": "constructor"
    },
    {
      "inputs": [
        {
          "internalType": "address",
          "name": "owner",
          "type": "address"
        }
      ],
      "name": "OwnableInvalidOwner",
      "type": "error"
    },
    {
      "inputs": [
        {
          "internalType": "address",
          "name": "account",
          "type": "address"
        }
      ],
      "name": "OwnableUnauthorizedAccount",
      "type": "error"
    },
    {
      "anonymous": false,
      "inputs": [
        {
          "indexed": true,
          "internalType": "bytes32",
          "name": "merkleRoot",
          "type": "bytes32"
        },
        {
          "indexed": false,
          "internalType": "string",
          "name": "ipfsCid",
          "type": "string"
        }
      ],
      "name": "BatchProofEmitted",
      "type": "event"
    },
    {
      "anonymous": false,
      "inputs": [
        {
          "indexed": true,
          "internalType": "uint256",
          "name": "id",
          "type": "uint256"
        },
        {
          "indexed": true,
          "internalType": "address",
          "name": "owner",
          "type": "address"
        },
        {
          "indexed": false,
          "internalType": "uint256",
          "name": "duration",
          "type": "uint256"
        },
        {
          "indexed": false,
          "internalType": "string",
          "name": "metadataURI",
          "type": "string"
        },
        {
          "indexed": false,
          "internalType": "string",
          "name": "displayName",
          "type": "string"
        },
        {
          "indexed": false,
          "internalType": "string",
          "name": "message",
          "type": "string"
        }
      ],
      "name": "ExistenceMinted",
      "type": "event"
    },
    {
      "anonymous": false,
      "inputs": [
        {
          "indexed": true,
          "internalType": "address",
          "name": "previousOwner",
          "type": "address"
        },
        {
          "indexed": true,
          "internalType": "address",
          "name": "newOwner",
          "type": "address"
        }
      ],
      "name": "OwnershipTransferred",
      "type": "event"
    },
    {
      "anonymous": false,
      "inputs": [
        {
          "indexed": false,
          "internalType": "uint256",
          "name": "baseNative",
          "type": "uint256"
        },
        {
          "indexed": false,
          "internalType": "uint256",
          "name": "rateNative",
          "type": "uint256"
        },
        {
          "indexed": false,
          "internalType": "uint256",
          "name": "baseTime26",
          "type": "uint256"
        },
        {
          "indexed": false,
          "internalType": "uint256",
          "name": "rateTime26",
          "type": "uint256"
        }
      ],
      "name": "PricingUpdated",
      "type": "event"
    },
    {
      "inputs": [],
      "name": "baseFeeNative",
      "outputs": [
        {
          "internalType": "uint256",
          "name": "",
          "type": "uint256"
        }
      ],
      "stateMutability": "view",
      "type": "function"
    },
    {
      "inputs": [],
      "name": "baseFeeTime26",
      "outputs": [
        {
          "internalType": "uint256",
          "name": "",
          "type": "uint256"
        }
      ],
      "stateMutability": "view",
      "type": "function"
    },
    {
      "inputs": [
        {
          "internalType": "uint256",
          "name": "duration",
          "type": "uint256"
        }
      ],
      "name": "calculateCostNative",
      "outputs": [
        {
          "internalType": "uint256",
          "name": "",
          "type": "uint256"
        }
      ],
      "stateMutability": "view",
      "type": "function"
    },
    {
      "inputs": [
        {
          "internalType": "uint256",
          "name": "duration",
          "type": "uint256"
        }
      ],
      "name": "calculateCostTime26",
      "outputs": [
        {
          "internalType": "uint256",
          "name": "",
          "type": "uint256"
        }
      ],
      "stateMutability": "view",
      "type": "function"
    },
    {
      "inputs": [],
      "name": "deflationMode",
      "outputs": [
        {
          "internalType": "bool",
          "name": "",
          "type": "bool"
        }
      ],
      "stateMutability": "view",
      "type": "function"
    },
    {
      "inputs": [
        {
          "internalType": "bytes32",
          "name": "merkleRoot",
          "type": "bytes32"
        },
        {
          "internalType": "string",
          "name": "ipfsCid",
          "type": "string"
        }
      ],
      "name": "emitBatchProof",
      "outputs": [],
      "stateMutability": "nonpayable",
      "type": "function"
    },
    {
      "inputs": [
        {
          "internalType": "uint256",
          "name": "",
          "type": "uint256"
        }
      ],
      "name": "existences",
      "outputs": [
        {
          "internalType": "address",
          "name": "owner",
          "type": "address"
        },
        {
          "internalType": "uint256",
          "name": "duration",
          "type": "uint256"
        },
        {
          "internalType": "uint256",
          "name": "timestamp",
          "type": "uint256"
        },
        {
          "internalType": "string",
          "name": "metadataURI",
          "type": "string"
        },
        {
          "internalType": "string",
          "name": "displayName",
          "type": "string"
        },
        {
          "internalType": "string",
          "name": "message",
          "type": "string"
        }
      ],
      "stateMutability": "view",
      "type": "function"
    },
    {
      "inputs": [],
      "name": "freeAllowance",
      "outputs": [
        {
          "internalType": "uint256",
          "name": "",
          "type": "uint256"
        }
      ],
      "stateMutability": "view",
      "type": "function"
    },
    {
      "inputs": [
        {
          "internalType": "uint256",
          "name": "duration",
          "type": "uint256"
        },
        {
          "internalType": "string",
          "name": "metadataURI",
          "type": "string"
        },
        {
          "internalType": "string",
          "name": "displayName",
          "type": "string"
        },
        {
          "internalType": "string",
          "name": "message",
          "type": "string"
        }
      ],
      "name": "mintEternalNative",
      "outputs": [],
      "stateMutability": "payable",
      "type": "function"
    },
    {
      "inputs": [
        {
          "internalType": "uint256",
          "name": "duration",
          "type": "uint256"
        },
        {
          "internalType": "string",
          "name": "metadataURI",
          "type": "string"
        },
        {
          "internalType": "string",
          "name": "displayName",
          "type": "string"
        },
        {
          "internalType": "string",
          "name": "message",
          "type": "string"
        }
      ],
      "name": "mintEternalTime26",
      "outputs": [],
      "stateMutability": "nonpayable",
      "type": "function"
    },
    {
      "inputs": [],
      "name": "nextExistenceId",
      "outputs": [
        {
          "internalType": "uint256",
          "name": "",
          "type": "uint256"
        }
      ],
      "stateMutability": "view",
      "type": "function"
    },
    {
      "inputs": [],
      "name": "owner",
      "outputs": [
        {
          "internalType": "address",
          "name": "",
          "type": "address"
        }
      ],
      "stateMutability": "view",
      "type": "function"
    },
    {
      "inputs": [],
      "name": "pricePerSecondNative",
      "outputs": [
        {
          "internalType": "uint256",
          "name": "",
          "type": "uint256"
        }
      ],
      "stateMutability": "view",
      "type": "function"
    },
    {
      "inputs": [],
      "name": "pricePerSecondTime26",
      "outputs": [
        {
          "internalType": "uint256",
          "name": "",
          "type": "uint256"
        }
      ],
      "stateMutability": "view",
      "type": "function"
    },
    {
      "inputs": [],
      "name": "renounceOwnership",
      "outputs": [],
      "stateMutability": "nonpayable",
      "type": "function"
    },
    {
      "inputs": [
        {
          "internalType": "bool",
          "name": "_mode",
          "type": "bool"
        }
      ],
      "name": "setDeflationMode",
      "outputs": [],
      "stateMutability": "nonpayable",
      "type": "function"
    },
    {
      "inputs": [
        {
          "internalType": "uint256",
          "name": "_baseNative",
          "type": "uint256"
        },
        {
          "internalType": "uint256",
          "name": "_rateNative",
          "type": "uint256"
        },
        {
          "internalType": "uint256",
          "name": "_baseTime26",
          "type": "uint256"
        },
        {
          "internalType": "uint256",
          "name": "_rateTime26",
          "type": "uint256"
        },
        {
          "internalType": "uint256",
          "name": "_allowance",
          "type": "uint256"
        }
      ],
      "name": "setPricing",
      "outputs": [],
      "stateMutability": "nonpayable",
      "type": "function"
    },
    {
      "inputs": [
        {
          "internalType": "address",
          "name": "_treasury",
          "type": "address"
        }
      ],
      "name": "setTreasury",
      "outputs": [],
      "stateMutability": "nonpayable",
      "type": "function"
    },
    {
      "inputs": [],
      "name": "time26Token",
      "outputs": [
        {
          "internalType": "contract Time26",
          "name": "",
          "type": "address"
        }
      ],
      "stateMutability": "view",
      "type": "function"
    },
    {
      "inputs": [
        {
          "internalType": "address",
          "name": "newOwner",
          "type": "address"
        }
      ],
      "name": "transferOwnership",
      "outputs": [],
      "stateMutability": "nonpayable",
      "type": "function"
    },
    {
      "inputs": [],
      "name": "treasury",
      "outputs": [
        {
          "internalType": "address",
          "name": "",
          "type": "address"
        }
      ],
      "stateMutability": "view",
      "type": "function"
    }
  ],
  "bytecode": "0x6080604052602d6009556001600a60006101000a81548160ff02191690831515021790555034801561003057600080fd5b5060405161203538038061203583398181016040528101906100529190610286565b80600073ffffffffffffffffffffffffffffffffffffffff168173ffffffffffffffffffffffffffffffffffffffff16036100c55760006040517f1e4fbdf70000000000000000000000000000000000000000000000000000000081526004016100bc91906102e8565b60405180910390fd5b6100d48161015f60201b60201c565b5082600360006101000a81548173ffffffffffffffffffffffffffffffffffffffff021916908373ffffffffffffffffffffffffffffffffffffffff16021790555081600460006101000a81548173ffffffffffffffffffffffffffffffffffffffff021916908373ffffffffffffffffffffffffffffffffffffffff160217905550505050610303565b60008060009054906101000a900473ffffffffffffffffffffffffffffffffffffffff169050816000806101000a81548173ffffffffffffffffffffffffffffffffffffffff021916908373ffffffffffffffffffffffffffffffffffffffff1602179055508173ffffffffffffffffffffffffffffffffffffffff168173ffffffffffffffffffffffffffffffffffffffff167f8be0079c531659141344cd1fd0a4f28419497f9722a3daafe3b4186f6b6457e060405160405180910390a35050565b600080fd5b600073ffffffffffffffffffffffffffffffffffffffff82169050919050565b600061025382610228565b9050919050565b61026381610248565b811461026e57600080fd5b50565b6000815190506102808161025a565b92915050565b60008060006060848603121561029f5761029e610223565b5b60006102ad86828701610271565b93505060206102be86828701610271565b92505060406102cf86828701610271565b9150509250925092565b6102e281610248565b82525050565b60006020820190506102fd60008301846102d9565b92915050565b611d23806103126000396000f3fe60806040526004361061012a5760003560e01c8063b0b2992c116100ab578063da537a321161006f578063da537a32146103d5578063dfb4154714610400578063e9eb6a7e14610429578063f0f4426014610454578063f2d83fdd1461047d578063f2fde38b146104995761012a565b8063b0b2992c146102d7578063b5e61fca14610319578063b6edd11214610342578063bcb8d00b1461037f578063d7c9bde2146103aa5761012a565b806361d027b3116100f257806361d027b314610214578063715018a61461023f57806371f7552d14610256578063781c728a146102815780638da5cb5b146102ac5761012a565b80632204b9e31461012f5780632cf32f1d1461016c5780632e5bc0751461019557806339cf9197146101be57806349530aaf146101e9575b600080fd5b34801561013b57600080fd5b5061015660048036038101906101519190611063565b6104c2565b604051610163919061109f565b60405180910390f35b34801561017857600080fd5b50610193600480360381019061018e9190611236565b610509565b005b3480156101a157600080fd5b506101bc60048036038101906101b79190611292565b61054d565b005b3480156101ca57600080fd5b506101d36105bc565b6040516101e0919061109f565b60405180910390f35b3480156101f557600080fd5b506101fe6105c2565b60405161020b919061109f565b60405180910390f35b34801561022057600080fd5b506102296105c8565b604051610236919061134e565b60405180910390f35b34801561024b57600080fd5b506102546105ee565b005b34801561026257600080fd5b5061026b610602565b60405161027891906113c8565b60405180910390f35b34801561028d57600080fd5b50610296610628565b6040516102a3919061109f565b60405180910390f35b3480156102b857600080fd5b506102c161062e565b6040516102ce919061134e565b60405180910390f35b3480156102e357600080fd5b506102fe60048036038101906102f99190611063565b610657565b60405161031096959493929190611462565b60405180910390f35b34801561032557600080fd5b50610340600480360381019061033b9190611510565b61084b565b005b34801561034e57600080fd5b5061036960048036038101906103649190611063565b610870565b604051610376919061109f565b60405180910390f35b34801561038b57600080fd5b506103946108b7565b6040516103a1919061109f565b60405180910390f35b3480156103b657600080fd5b506103bf6108bd565b6040516103cc919061109f565b60405180910390f35b3480156103e157600080fd5b506103ea6108c3565b6040516103f7919061154c565b60405180910390f35b34801561040c57600080fd5b5061042760048036038101906104229190611567565b6108d6565b005b34801561043557600080fd5b5061043e610b4e565b60405161044b919061109f565b60405180910390f35b34801561046057600080fd5b5061047b6004803603810190610476919061164e565b610b54565b005b61049760048036038101906104929190611567565b610ba0565b005b3480156104a557600080fd5b506104c060048036038101906104bb919061164e565b610cd2565b005b60008060095483116104d55760006104e4565b600954836104e391906116aa565b5b9050600654816104f491906116de565b6005546105019190611720565b915050919050565b610511610d58565b817f7fcc9ee9a0467126e17eb6d908776146a3b6621bcd61e88fe74b871f143d6176826040516105419190611754565b60405180910390a25050565b610555610d58565b84600581905550836006819055508260078190555081600881905550806009819055507f10391582be13a09a314521d7735c10a4c30864aa5ae7191a62b6d443d723fd38858585856040516105ad9493929190611776565b60405180910390a15050505050565b60065481565b60075481565b600460009054906101000a900473ffffffffffffffffffffffffffffffffffffffff1681565b6105f6610d58565b6106006000610ddf565b565b600360009054906101000a900473ffffffffffffffffffffffffffffffffffffffff1681565b60025481565b60008060009054906101000a900473ffffffffffffffffffffffffffffffffffffffff16905090565b60016020528060005260406000206000915090508060000160009054906101000a900473ffffffffffffffffffffffffffffffffffffffff16908060010154908060020154908060030180546106ac906117ea565b80601f01602080910402602001604051908101604052809291908181526020018280546106d8906117ea565b80156107255780601f106106fa57610100808354040283529160200191610725565b820191906000526020600020905b81548152906001019060200180831161070857829003601f168201915b50505050509080600401805461073a906117ea565b80601f0160208091040260200160405190810160405280929190818152602001828054610766906117ea565b80156107b35780601f10610788576101008083540402835291602001916107b3565b820191906000526020600020905b81548152906001019060200180831161079657829003601f168201915b5050505050908060050180546107c8906117ea565b80601f01602080910402602001604051908101604052809291908181526020018280546107f4906117ea565b80156108415780601f1061081657610100808354040283529160200191610841565b820191906000526020600020905b81548152906001019060200180831161082457829003601f168201915b5050505050905086565b610853610d58565b80600a60006101000a81548160ff02191690831515021790555050565b6000806009548311610883576000610892565b6009548361089191906116aa565b5b9050600854816108a291906116de565b6007546108af9190611720565b915050919050565b60085481565b60055481565b600a60009054906101000a900460ff1681565b60006108e185610870565b905080600360009054906101000a900473ffffffffffffffffffffffffffffffffffffffff1673ffffffffffffffffffffffffffffffffffffffff166370a08231336040518263ffffffff1660e01b815260040161093f919061134e565b602060405180830381865afa15801561095c573d6000803e3d6000fd5b505050506040513d601f19601f820116820180604052508101906109809190611830565b10156109c1576040517f08c379a00000000000000000000000000000000000000000000000000000000081526004016109b8906118a9565b60405180910390fd5b6000811115610b3a57600a60009054906101000a900460ff1615610a7357600360009054906101000a900473ffffffffffffffffffffffffffffffffffffffff1673ffffffffffffffffffffffffffffffffffffffff166379cc679033836040518363ffffffff1660e01b8152600401610a3c9291906118c9565b600060405180830381600087803b158015610a5657600080fd5b505af1158015610a6a573d6000803e3d6000fd5b50505050610b39565b600360009054906101000a900473ffffffffffffffffffffffffffffffffffffffff1673ffffffffffffffffffffffffffffffffffffffff166323b872dd33600460009054906101000a900473ffffffffffffffffffffffffffffffffffffffff16846040518463ffffffff1660e01b8152600401610af4939291906118f2565b6020604051808303816000875af1158015610b13573d6000803e3d6000fd5b505050506040513d601f19601f82011682018060405250810190610b37919061193e565b505b5b610b473386868686610ea3565b5050505050565b60095481565b610b5c610d58565b80600460006101000a81548173ffffffffffffffffffffffffffffffffffffffff021916908373ffffffffffffffffffffffffffffffffffffffff16021790555050565b6000610bab856104c2565b905080341015610bf0576040517f08c379a0000000000000000000000000000000000000000000000000000000008152600401610be7906119b7565b60405180910390fd5b80341115610c4b573373ffffffffffffffffffffffffffffffffffffffff166108fc8234610c1e91906116aa565b9081150290604051600060405180830381858888f19350505050158015610c49573d6000803e3d6000fd5b505b6000811115610cbe57600460009054906101000a900473ffffffffffffffffffffffffffffffffffffffff1673ffffffffffffffffffffffffffffffffffffffff166108fc829081150290604051600060405180830381858888f19350505050158015610cbc573d6000803e3d6000fd5b505b610ccb3386868686610ea3565b5050505050565b610cda610d58565b600073ffffffffffffffffffffffffffffffffffffffff168173ffffffffffffffffffffffffffffffffffffffff1603610d4c5760006040517f1e4fbdf7000000000000000000000000000000000000000000000000000000008152600401610d43919061134e565b60405180910390fd5b610d5581610ddf565b50565b610d60611011565b73ffffffffffffffffffffffffffffffffffffffff16610d7e61062e565b73ffffffffffffffffffffffffffffffffffffffff1614610ddd57610da1611011565b6040517f118cdaa7000000000000000000000000000000000000000000000000000000008152600401610dd4919061134e565b60405180910390fd5b565b60008060009054906101000a900473ffffffffffffffffffffffffffffffffffffffff169050816000806101000a81548173ffffffffffffffffffffffffffffffffffffffff021916908373ffffffffffffffffffffffffffffffffffffffff1602179055508173ffffffffffffffffffffffffffffffffffffffff168173ffffffffffffffffffffffffffffffffffffffff167f8be0079c531659141344cd1fd0a4f28419497f9722a3daafe3b4186f6b6457e060405160405180910390a35050565b600060026000815480929190610eb8906119d7565b9190505590506040518060c001604052808773ffffffffffffffffffffffffffffffffffffffff168152602001868152602001428152602001858152602001848152602001838152506001600083815260200190815260200160002060008201518160000160006101000a81548173ffffffffffffffffffffffffffffffffffffffff021916908373ffffffffffffffffffffffffffffffffffffffff16021790555060208201518160010155604082015181600201556060820151816003019081610f849190611bc1565b506080820151816004019081610f9a9190611bc1565b5060a0820151816005019081610fb09190611bc1565b509050508573ffffffffffffffffffffffffffffffffffffffff16817fcec2f39df3da2db38a7e12aed80fdac413b8c8d5885f4c7f5d01050560ce0a70878787876040516110019493929190611c93565b60405180910390a3505050505050565b600033905090565b6000604051905090565b600080fd5b600080fd5b6000819050919050565b6110408161102d565b811461104b57600080fd5b50565b60008135905061105d81611037565b92915050565b60006020828403121561107957611078611023565b5b60006110878482850161104e565b91505092915050565b6110998161102d565b82525050565b60006020820190506110b46000830184611090565b92915050565b6000819050919050565b6110cd816110ba565b81146110d857600080fd5b50565b6000813590506110ea816110c4565b92915050565b600080fd5b600080fd5b6000601f19601f8301169050919050565b7f4e487b7100000000000000000000000000000000000000000000000000000000600052604160045260246000fd5b611143826110fa565b810181811067ffffffffffffffff821117156111625761116161110b565b5b80604052505050565b6000611175611019565b9050611181828261113a565b919050565b600067ffffffffffffffff8211156111a1576111a061110b565b5b6111aa826110fa565b9050602081019050919050565b82818337600083830152505050565b60006111d96111d484611186565b61116b565b9050828152602081018484840111156111f5576111f46110f5565b5b6112008482856111b7565b509392505050565b600082601f83011261121d5761121c6110f0565b5b813561122d8482602086016111c6565b91505092915050565b6000806040838503121561124d5761124c611023565b5b600061125b858286016110db565b925050602083013567ffffffffffffffff81111561127c5761127b611028565b5b61128885828601611208565b9150509250929050565b600080600080600060a086880312156112ae576112ad611023565b5b60006112bc8882890161104e565b95505060206112cd8882890161104e565b94505060406112de8882890161104e565b93505060606112ef8882890161104e565b92505060806113008882890161104e565b9150509295509295909350565b600073ffffffffffffffffffffffffffffffffffffffff82169050919050565b60006113388261130d565b9050919050565b6113488161132d565b82525050565b6000602082019050611363600083018461133f565b92915050565b6000819050919050565b600061138e6113896113848461130d565b611369565b61130d565b9050919050565b60006113a082611373565b9050919050565b60006113b282611395565b9050919050565b6113c2816113a7565b82525050565b60006020820190506113dd60008301846113b9565b92915050565b600081519050919050565b600082825260208201905092915050565b60005b8381101561141d578082015181840152602081019050611402565b60008484015250505050565b6000611434826113e3565b61143e81856113ee565b935061144e8185602086016113ff565b611457816110fa565b840191505092915050565b600060c082019050611477600083018961133f565b6114846020830188611090565b6114916040830187611090565b81810360608301526114a38186611429565b905081810360808301526114b78185611429565b905081810360a08301526114cb8184611429565b9050979650505050505050565b60008115159050919050565b6114ed816114d8565b81146114f857600080fd5b50565b60008135905061150a816114e4565b92915050565b60006020828403121561152657611525611023565b5b6000611534848285016114fb565b91505092915050565b611546816114d8565b82525050565b6000602082019050611561600083018461153d565b92915050565b6000806000806080858703121561158157611580611023565b5b600061158f8782880161104e565b945050602085013567ffffffffffffffff8111156115b0576115af611028565b5b6115bc87828801611208565b935050604085013567ffffffffffffffff8111156115dd576115dc611028565b5b6115e987828801611208565b925050606085013567ffffffffffffffff81111561160a57611609611028565b5b61161687828801611208565b91505092959194509250565b61162b8161132d565b811461163657600080fd5b50565b60008135905061164881611622565b92915050565b60006020828403121561166457611663611023565b5b600061167284828501611639565b91505092915050565b7f4e487b7100000000000000000000000000000000000000000000000000000000600052601160045260246000fd5b60006116b58261102d565b91506116c08361102d565b92508282039050818111156116d8576116d761167b565b5b92915050565b60006116e98261102d565b91506116f48361102d565b92508282026117028161102d565b915082820484148315176117195761171861167b565b5b5092915050565b600061172b8261102d565b91506117368361102d565b925082820190508082111561174e5761174d61167b565b5b92915050565b6000602082019050818103600083015261176e8184611429565b905092915050565b600060808201905061178b6000830187611090565b6117986020830186611090565b6117a56040830185611090565b6117b26060830184611090565b95945050505050565b7f4e487b7100000000000000000000000000000000000000000000000000000000600052602260045260246000fd5b6000600282049050600182168061180257607f821691505b602082108103611815576118146117bb565b5b50919050565b60008151905061182a81611037565b92915050565b60006020828403121561184657611845611023565b5b60006118548482850161181b565b91505092915050565b7f496e73756666696369656e742054696d6532362062616c616e63650000000000600082015250565b6000611893601b836113ee565b915061189e8261185d565b602082019050919050565b600060208201905081810360008301526118c281611886565b9050919050565b60006040820190506118de600083018561133f565b6118eb6020830184611090565b9392505050565b6000606082019050611907600083018661133f565b611914602083018561133f565b6119216040830184611090565b949350505050565b600081519050611938816114e4565b92915050565b60006020828403121561195457611953611023565b5b600061196284828501611929565b91505092915050565b7f496e73756666696369656e74207061796d656e74000000000000000000000000600082015250565b60006119a16014836113ee565b91506119ac8261196b565b602082019050919050565b600060208201905081810360008301526119d081611994565b9050919050565b60006119e28261102d565b91507fffffffffffffffffffffffffffffffffffffffffffffffffffffffffffffffff8203611a1457611a1361167b565b5b600182019050919050565b60008190508160005260206000209050919050565b60006020601f8301049050919050565b600082821b905092915050565b600060088302611a817fffffffffffffffffffffffffffffffffffffffffffffffffffffffffffffffff82611a44565b611a8b8683611a44565b95508019841693508086168417925050509392505050565b6000611abe611ab9611ab48461102d565b611369565b61102d565b9050919050565b6000819050919050565b611ad883611aa3565b611aec611ae482611ac5565b848454611a51565b825550505050565b600090565b611b01611af4565b611b0c818484611acf565b505050565b5b81811015611b3057611b25600082611af9565b600181019050611b12565b5050565b601f821115611b7557611b4681611a1f565b611b4f84611a34565b81016020851015611b5e578190505b611b72611b6a85611a34565b830182611b11565b50505b505050565b600082821c905092915050565b6000611b9860001984600802611b7a565b1980831691505092915050565b6000611bb18383611b87565b9150826002028217905092915050565b611bca826113e3565b67ffffffffffffffff811115611be357611be261110b565b5b611bed82546117ea565b611bf8828285611b34565b600060209050601f831160018114611c2b5760008415611c19578287015190505b611c238582611ba5565b865550611c8b565b601f198416611c3986611a1f565b60005b82811015611c6157848901518255600182019150602085019450602081019050611c3c565b86831015611c7e5784890151611c7a601f891682611b87565b8355505b6001600288020188555050505b505050505050565b6000608082019050611ca86000830187611090565b8181036020830152611cba8186611429565b90508181036040830152611cce8185611429565b90508181036060830152611ce28184611429565b90509594505050505056fea26469706673582212201475c31745458bb1c69b13db831cc44a6509b282feacff96f9cfedf68914308d64736f6c634300081b0033",
  "linkReferences": {},
  "deployedLinkReferences": {}
}