{
  "_format": "hh-sol-artifact-1",
  "contractName": "SnapshotNFT",
  "sourceName": "contracts/SnapshotNFT.sol",
  "abi": [
    {
      "inputs": [
        {
          "internalType": "address",
          "name": "_operator",
          "type": "address"
        },
        {
          "internalType": "address",
          "name": "_royaltyReceiver",
          "type": "address"
        },
        {
          "internalType": "address",
          "name": "_initialOwner",
          "type": "address"
        }
      ],
      "stateMutability": "nonpayable",
      "type": "constructor"
    },
    {
      "inputs": [],
      "name": "ERC721EnumerableForbiddenBatchMint",
      "type": "error"
    },
    {
      "inputs": [
        {
          "internalType": "address",
          "name": "sender",
          "type": "address"
        },
        {
          "internalType": "uint256",
          "name": "tokenId",
          "type": "uint256"
        },
        {
          "internalType": "address",
          "name": "owner",
          "type": "address"
        }
      ],
      "name": "ERC721IncorrectOwner",
      "type": "error"
    },
    {
      "inputs": [
        {
          "internalType": "address",
          "name": "operator",
          "type": "address"
        },
        {
          "internalType": "uint256",
          "name": "tokenId",
          "type": "uint256"
        }
      ],
      "name": "ERC721InsufficientApproval",
      "type": "error"
    },
    {
      "inputs": [
        {
          "internalType": "address",
          "name": "approver",
          "type": "address"
        }
      ],
      "name": "ERC721InvalidApprover",
      "type": "error"
    },
    {
      "inputs": [
        {
          "internalType": "address",
          "name": "operator",
          "type": "address"
        }
      ],
      "name": "ERC721InvalidOperator",
      "type": "error"
    },
    {
      "inputs": [
        {
          "internalType": "address",
          "name": "owner",
          "type": "address"
        }
      ],
      "name": "ERC721InvalidOwner",
      "type": "error"
    },
    {
      "inputs": [
        {
          "internalType": "address",
          "name": "receiver",
          "type": "address"
        }
      ],
      "name": "ERC721InvalidReceiver",
      "type": "error"
    },
    {
      "inputs": [
        {
          "internalType": "address",
          "name": "sender",
          "type": "address"
        }
      ],
      "name": "ERC721InvalidSender",
      "type": "error"
    },
    {
      "inputs": [
        {
          "internalType": "uint256",
          "name": "tokenId",
          "type": "uint256"
        }
      ],
      "name": "ERC721NonexistentToken",
      "type": "error"
    },
    {
      "inputs": [
        {
          "internalType": "address",
          "name": "owner",
          "type": "address"
        },
        {
          "internalType": "uint256",
          "name": "index",
          "type": "uint256"
        }
      ],
      "name": "ERC721OutOfBoundsIndex",
      "type": "error"
    },
    {
      "inputs": [
        {
          "internalType": "address",
          "name": "owner",
          "type": "address"
        }
      ],
      "name": "OwnableInvalidOwner",
      "type": "error"
    },
    {
      "inputs": [
        {
          "internalType": "address",
          "name": "account",
          "type": "address"
        }
      ],
      "name": "OwnableUnauthorizedAccount",
      "type": "error"
    },
    {
      "anonymous": false,
      "inputs": [
        {
          "indexed": true,
          "internalType": "address",
          "name": "owner",
          "type": "address"
        },
        {
          "indexed": true,
          "internalType": "address",
          "name": "approved",
          "type": "address"
        },
        {
          "indexed": true,
          "internalType": "uint256",
          "name": "tokenId",
          "type": "uint256"
        }
      ],
      "name": "Approval",
      "type": "event"
    },
    {
      "anonymous": false,
      "inputs": [
        {
          "indexed": true,
          "internalType": "address",
          "name": "owner",
          "type": "address"
        },
        {
          "indexed": true,
          "internalType": "address",
          "name": "operator",
          "type": "address"
        },
        {
          "indexed": false,
          "internalType": "bool",
          "name": "approved",
          "type": "bool"
        }
      ],
      "name": "ApprovalForAll",
      "type": "event"
    },
    {
      "anonymous": false,
      "inputs": [
        {
          "indexed": true,
          "internalType": "address",
          "name": "oldOperator",
          "type": "address"
        },
        {
          "indexed": true,
          "internalType": "address",
          "name": "newOperator",
          "type": "address"
        }
      ],
      "name": "OperatorUpdated",
      "type": "event"
    },
    {
      "anonymous": false,
      "inputs": [
        {
          "indexed": true,
          "internalType": "address",
          "name": "previousOwner",
          "type": "address"
        },
        {
          "indexed": true,
          "internalType": "address",
          "name": "newOwner",
          "type": "address"
        }
      ],
      "name": "OwnershipTransferred",
      "type": "event"
    },
    {
      "anonymous": false,
      "inputs": [
        {
          "indexed": false,
          "internalType": "address",
          "name": "account",
          "type": "address"
        }
      ],
      "name": "Paused",
      "type": "event"
    },
    {
      "anonymous": false,
      "inputs": [
        {
          "indexed": true,
          "internalType": "address",
          "name": "receiver",
          "type": "address"
        },
        {
          "indexed": false,
          "internalType": "uint96",
          "name": "bps",
          "type": "uint96"
        }
      ],
      "name": "RoyaltyUpdated",
      "type": "event"
    },
    {
      "anonymous": false,
      "inputs": [
        {
          "indexed": true,
          "internalType": "address",
          "name": "to",
          "type": "address"
        },
        {
          "indexed": true,
          "internalType": "uint256",
          "name": "tokenId",
          "type": "uint256"
        },
        {
          "indexed": false,
          "internalType": "enum SnapshotNFT.SnapshotType",
          "name": "snapshotType",
          "type": "uint8"
        },
        {
          "indexed": false,
          "internalType": "uint256",
          "name": "timestamp",
          "type": "uint256"
        },
        {
          "indexed": false,
          "internalType": "string",
          "name": "arweaveHash",
          "type": "string"
        }
      ],
      "name": "SnapshotMinted",
      "type": "event"
    },
    {
      "anonymous": false,
      "inputs": [
        {
          "indexed": true,
          "internalType": "address",
          "name": "from",
          "type": "address"
        },
        {
          "indexed": true,
          "internalType": "address",
          "name": "to",
          "type": "address"
        },
        {
          "indexed": true,
          "internalType": "uint256",
          "name": "tokenId",
          "type": "uint256"
        }
      ],
      "name": "Transfer",
      "type": "event"
    },
    {
      "anonymous": false,
      "inputs": [
        {
          "indexed": false,
          "internalType": "address",
          "name": "account",
          "type": "address"
        }
      ],
      "name": "Unpaused",
      "type": "event"
    },
    {
      "inputs": [],
      "name": "MAX_BATCH_SIZE",
      "outputs": [
        {
          "internalType": "uint256",
          "name": "",
          "type": "uint256"
        }
      ],
      "stateMutability": "view",
      "type": "function"
    },
    {
      "inputs": [
        {
          "internalType": "address",
          "name": "to",
          "type": "address"
        },
        {
          "internalType": "uint256",
          "name": "tokenId",
          "type": "uint256"
        }
      ],
      "name": "approve",
      "outputs": [],
      "stateMutability": "nonpayable",
      "type": "function"
    },
    {
      "inputs": [
        {
          "internalType": "address",
          "name": "owner",
          "type": "address"
        }
      ],
      "name": "balanceOf",
      "outputs": [
        {
          "internalType": "uint256",
          "name": "",
          "type": "uint256"
        }
      ],
      "stateMutability": "view",
      "type": "function"
    },
    {
      "inputs": [
        {
          "internalType": "uint256",
          "name": "tokenId",
          "type": "uint256"
        }
      ],
      "name": "getApproved",
      "outputs": [
        {
          "internalType": "address",
          "name": "",
          "type": "address"
        }
      ],
      "stateMutability": "view",
      "type": "function"
    },
    {
      "inputs": [
        {
          "internalType": "uint256",
          "name": "tokenId",
          "type": "uint256"
        }
      ],
      "name": "getSnapshotInfo",
      "outputs": [
        {
          "internalType": "address",
          "name": "owner",
          "type": "address"
        },
        {
          "internalType": "string",
          "name": "arweaveHash",
          "type": "string"
        },
        {
          "internalType": "enum SnapshotNFT.SnapshotType",
          "name": "snapshotType",
          "type": "uint8"
        },
        {
          "internalType": "uint256",
          "name": "timestamp",
          "type": "uint256"
        },
        {
          "internalType": "string",
          "name": "description",
          "type": "string"
        }
      ],
      "stateMutability": "view",
      "type": "function"
    },
    {
      "inputs": [
        {
          "internalType": "enum SnapshotNFT.SnapshotType",
          "name": "snapshotType",
          "type": "uint8"
        }
      ],
      "name": "getSnapshotTypeName",
      "outputs": [
        {
          "internalType": "string",
          "name": "",
          "type": "string"
        }
      ],
      "stateMutability": "pure",
      "type": "function"
    },
    {
      "inputs": [
        {
          "internalType": "address",
          "name": "owner",
          "type": "address"
        },
        {
          "internalType": "address",
          "name": "operator",
          "type": "address"
        }
      ],
      "name": "isApprovedForAll",
      "outputs": [
        {
          "internalType": "bool",
          "name": "",
          "type": "bool"
        }
      ],
      "stateMutability": "view",
      "type": "function"
    },
    {
      "inputs": [
        {
          "internalType": "address",
          "name": "to",
          "type": "address"
        },
        {
          "internalType": "string",
          "name": "arweaveHash",
          "type": "string"
        },
        {
          "internalType": "enum SnapshotNFT.SnapshotType",
          "name": "snapshotType",
          "type": "uint8"
        },
        {
          "internalType": "uint256",
          "name": "timestamp",
          "type": "uint256"
        },
        {
          "internalType": "string",
          "name": "description",
          "type": "string"
        }
      ],
      "name": "mint",
      "outputs": [
        {
          "internalType": "uint256",
          "name": "",
          "type": "uint256"
        }
      ],
      "stateMutability": "nonpayable",
      "type": "function"
    },
    {
      "inputs": [
        {
          "internalType": "address",
          "name": "to",
          "type": "address"
        },
        {
          "internalType": "string[]",
          "name": "arweaveHashes",
          "type": "string[]"
        },
        {
          "internalType": "enum SnapshotNFT.SnapshotType[]",
          "name": "snapshotTypes",
          "type": "uint8[]"
        },
        {
          "internalType": "uint256[]",
          "name": "timestamps",
          "type": "uint256[]"
        },
        {
          "internalType": "string[]",
          "name": "descriptions",
          "type": "string[]"
        }
      ],
      "name": "mintBatch",
      "outputs": [],
      "stateMutability": "nonpayable",
      "type": "function"
    },
    {
      "inputs": [],
      "name": "name",
      "outputs": [
        {
          "internalType": "string",
          "name": "",
          "type": "string"
        }
      ],
      "stateMutability": "view",
      "type": "function"
    },
    {
      "inputs": [],
      "name": "operator",
      "outputs": [
        {
          "internalType": "address",
          "name": "",
          "type": "address"
        }
      ],
      "stateMutability": "view",
      "type": "function"
    },
    {
      "inputs": [],
      "name": "owner",
      "outputs": [
        {
          "internalType": "address",
          "name": "",
          "type": "address"
        }
      ],
      "stateMutability": "view",
      "type": "function"
    },
    {
      "inputs": [
        {
          "internalType": "uint256",
          "name": "tokenId",
          "type": "uint256"
        }
      ],
      "name": "ownerOf",
      "outputs": [
        {
          "internalType": "address",
          "name": "",
          "type": "address"
        }
      ],
      "stateMutability": "view",
      "type": "function"
    },
    {
      "inputs": [],
      "name": "pause",
      "outputs": [],
      "stateMutability": "nonpayable",
      "type": "function"
    },
    {
      "inputs": [],
      "name": "paused",
      "outputs": [
        {
          "internalType": "bool",
          "name": "",
          "type": "bool"
        }
      ],
      "stateMutability": "view",
      "type": "function"
    },
    {
      "inputs": [],
      "name": "renounceOwnership",
      "outputs": [],
      "stateMutability": "nonpayable",
      "type": "function"
    },
    {
      "inputs": [],
      "name": "royaltyBps",
      "outputs": [
        {
          "internalType": "uint96",
          "name": "",
          "type": "uint96"
        }
      ],
      "stateMutability": "view",
      "type": "function"
    },
    {
      "inputs": [
        {
          "internalType": "uint256",
          "name": "",
          "type": "uint256"
        },
        {
          "internalType": "uint256",
          "name": "salePrice",
          "type": "uint256"
        }
      ],
      "name": "royaltyInfo",
      "outputs": [
        {
          "internalType": "address",
          "name": "receiver",
          "type": "address"
        },
        {
          "internalType": "uint256",
          "name": "royaltyAmount",
          "type": "uint256"
        }
      ],
      "stateMutability": "view",
      "type": "function"
    },
    {
      "inputs": [],
      "name": "royaltyReceiver",
      "outputs": [
        {
          "internalType": "address",
          "name": "",
          "type": "address"
        }
      ],
      "stateMutability": "view",
      "type": "function"
    },
    {
      "inputs": [
        {
          "internalType": "address",
          "name": "from",
          "type": "address"
        },
        {
          "internalType": "address",
          "name": "to",
          "type": "address"
        },
        {
          "internalType": "uint256",
          "name": "tokenId",
          "type": "uint256"
        }
      ],
      "name": "safeTransferFrom",
      "outputs": [],
      "stateMutability": "nonpayable",
      "type": "function"
    },
    {
      "inputs": [
        {
          "internalType": "address",
          "name": "from",
          "type": "address"
        },
        {
          "internalType": "address",
          "name": "to",
          "type": "address"
        },
        {
          "internalType": "uint256",
          "name": "tokenId",
          "type": "uint256"
        },
        {
          "internalType": "bytes",
          "name": "data",
          "type": "bytes"
        }
      ],
      "name": "safeTransferFrom",
      "outputs": [],
      "stateMutability": "nonpayable",
      "type": "function"
    },
    {
      "inputs": [
        {
          "internalType": "address",
          "name": "operator",
          "type": "address"
        },
        {
          "internalType": "bool",
          "name": "approved",
          "type": "bool"
        }
      ],
      "name": "setApprovalForAll",
      "outputs": [],
      "stateMutability": "nonpayable",
      "type": "function"
    },
    {
      "inputs": [
        {
          "internalType": "string",
          "name": "baseURI",
          "type": "string"
        }
      ],
      "name": "setBaseURI",
      "outputs": [],
      "stateMutability": "nonpayable",
      "type": "function"
    },
    {
      "inputs": [
        {
          "internalType": "address",
          "name": "_operator",
          "type": "address"
        }
      ],
      "name": "setOperator",
      "outputs": [],
      "stateMutability": "nonpayable",
      "type": "function"
    },
    {
      "inputs": [
        {
          "internalType": "address",
          "name": "_receiver",
          "type": "address"
        },
        {
          "internalType": "uint96",
          "name": "_bps",
          "type": "uint96"
        }
      ],
      "name": "setRoyalty",
      "outputs": [],
      "stateMutability": "nonpayable",
      "type": "function"
    },
    {
      "inputs": [
        {
          "internalType": "uint256",
          "name": "",
          "type": "uint256"
        }
      ],
      "name": "snapshots",
      "outputs": [
        {
          "internalType": "string",
          "name": "arweaveHash",
          "type": "string"
        },
        {
          "internalType": "enum SnapshotNFT.SnapshotType",
          "name": "snapshotType",
          "type": "uint8"
        },
        {
          "internalType": "uint256",
          "name": "timestamp",
          "type": "uint256"
        },
        {
          "internalType": "string",
          "name": "description",
          "type": "string"
        }
      ],
      "stateMutability": "view",
      "type": "function"
    },
    {
      "inputs": [
        {
          "internalType": "bytes4",
          "name": "interfaceId",
          "type": "bytes4"
        }
      ],
      "name": "supportsInterface",
      "outputs": [
        {
          "internalType": "bool",
          "name": "",
          "type": "bool"
        }
      ],
      "stateMutability": "view",
      "type": "function"
    },
    {
      "inputs": [],
      "name": "symbol",
      "outputs": [
        {
          "internalType": "string",
          "name": "",
          "type": "string"
        }
      ],
      "stateMutability": "view",
      "type": "function"
    },
    {
      "inputs": [
        {
          "internalType": "uint256",
          "name": "index",
          "type": "uint256"
        }
      ],
      "name": "tokenByIndex",
      "outputs": [
        {
          "internalType": "uint256",
          "name": "",
          "type": "uint256"
        }
      ],
      "stateMutability": "view",
      "type": "function"
    },
    {
      "inputs": [
        {
          "internalType": "address",
          "name": "owner",
          "type": "address"
        },
        {
          "internalType": "uint256",
          "name": "index",
          "type": "uint256"
        }
      ],
      "name": "tokenOfOwnerByIndex",
      "outputs": [
        {
          "internalType": "uint256",
          "name": "",
          "type": "uint256"
        }
      ],
      "stateMutability": "view",
      "type": "function"
    },
    {
      "inputs": [
        {
          "internalType": "uint256",
          "name": "tokenId",
          "type": "uint256"
        }
      ],
      "name": "tokenURI",
      "outputs": [
        {
          "internalType": "string",
          "name": "",
          "type": "string"
        }
      ],
      "stateMutability": "view",
      "type": "function"
    },
    {
      "inputs": [],
      "name": "totalSupply",
      "outputs": [
        {
          "internalType": "uint256",
          "name": "",
          "type": "uint256"
        }
      ],
      "stateMutability": "view",
      "type": "function"
    },
    {
      "inputs": [
        {
          "internalType": "address",
          "name": "from",
          "type": "address"
        },
        {
          "internalType": "address",
          "name": "to",
          "type": "address"
        },
        {
          "internalType": "uint256",
          "name": "tokenId",
          "type": "uint256"
        }
      ],
      "name": "transferFrom",
      "outputs": [],
      "stateMutability": "nonpayable",
      "type": "function"
    },
    {
      "inputs": [
        {
          "internalType": "address",
          "name": "newOwner",
          "type": "address"
        }
      ],
      "name": "transferOwnership",
      "outputs": [],
      "stateMutability": "nonpayable",
      "type": "function"
    },
    {
      "inputs": [],
      "name": "unpause",
      "outputs": [],
      "stateMutability": "nonpayable",
      "type": "function"
    }
  ],
  "bytecode": "0x60806040526101f4600e60146101000a8154816bffffffffffffffffffffffff02191690836bffffffffffffffffffffffff16021790555034801561004357600080fd5b506040516151ca3803806151ca8339818101604052810190610065919061044c565b806040518060400160405280601481526020017f504f4532303236202d204368726f6e69636c65730000000000000000000000008152506040518060400160405280600981526020017f4348524f4e49434c45000000000000000000000000000000000000000000000081525081600090816100e191906106ef565b5080600190816100f191906106ef565b505050600073ffffffffffffffffffffffffffffffffffffffff168173ffffffffffffffffffffffffffffffffffffffff16036101665760006040517f1e4fbdf700000000000000000000000000000000000000000000000000000000815260040161015d91906107d0565b60405180910390fd5b6101758161032360201b60201c565b50600073ffffffffffffffffffffffffffffffffffffffff168373ffffffffffffffffffffffffffffffffffffffff16036101e5576040517f08c379a00000000000000000000000000000000000000000000000000000000081526004016101dc9061086e565b60405180910390fd5b600073ffffffffffffffffffffffffffffffffffffffff168273ffffffffffffffffffffffffffffffffffffffff1603610254576040517f08c379a000000000000000000000000000000000000000000000000000000000815260040161024b90610900565b60405180910390fd5b82600b60006101000a81548173ffffffffffffffffffffffffffffffffffffffff021916908373ffffffffffffffffffffffffffffffffffffffff16021790555081600e60006101000a81548173ffffffffffffffffffffffffffffffffffffffff021916908373ffffffffffffffffffffffffffffffffffffffff1602179055506040518060400160405280601481526020017f68747470733a2f2f617277656176652e6e65742f000000000000000000000000815250600f908161031a91906106ef565b50505050610920565b6000600a60009054906101000a900473ffffffffffffffffffffffffffffffffffffffff16905081600a60006101000a81548173ffffffffffffffffffffffffffffffffffffffff021916908373ffffffffffffffffffffffffffffffffffffffff1602179055508173ffffffffffffffffffffffffffffffffffffffff168173ffffffffffffffffffffffffffffffffffffffff167f8be0079c531659141344cd1fd0a4f28419497f9722a3daafe3b4186f6b6457e060405160405180910390a35050565b600080fd5b600073ffffffffffffffffffffffffffffffffffffffff82169050919050565b6000610419826103ee565b9050919050565b6104298161040e565b811461043457600080fd5b50565b60008151905061044681610420565b92915050565b600080600060608486031215610465576104646103e9565b5b600061047386828701610437565b935050602061048486828701610437565b925050604061049586828701610437565b9150509250925092565b600081519050919050565b7f4e487b7100000000000000000000000000000000000000000000000000000000600052604160045260246000fd5b7f4e487b7100000000000000000000000000000000000000000000000000000000600052602260045260246000fd5b6000600282049050600182168061052057607f821691505b602082108103610533576105326104d9565b5b50919050565b60008190508160005260206000209050919050565b60006020601f8301049050919050565b600082821b905092915050565b60006008830261059b7fffffffffffffffffffffffffffffffffffffffffffffffffffffffffffffffff8261055e565b6105a5868361055e565b95508019841693508086168417925050509392505050565b6000819050919050565b6000819050919050565b60006105ec6105e76105e2846105bd565b6105c7565b6105bd565b9050919050565b6000819050919050565b610606836105d1565b61061a610612826105f3565b84845461056b565b825550505050565b600090565b61062f610622565b61063a8184846105fd565b505050565b5b8181101561065e57610653600082610627565b600181019050610640565b5050565b601f8211156106a35761067481610539565b61067d8461054e565b8101602085101561068c578190505b6106a06106988561054e565b83018261063f565b50505b505050565b600082821c905092915050565b60006106c6600019846008026106a8565b1980831691505092915050565b60006106df83836106b5565b9150826002028217905092915050565b6106f88261049f565b67ffffffffffffffff811115610711576107106104aa565b5b61071b8254610508565b610726828285610662565b600060209050601f8311600181146107595760008415610747578287015190505b61075185826106d3565b8655506107b9565b601f19841661076786610539565b60005b8281101561078f5784890151825560018201915060208501945060208101905061076a565b868310156107ac57848901516107a8601f8916826106b5565b8355505b6001600288020188555050505b505050505050565b6107ca8161040e565b82525050565b60006020820190506107e560008301846107c1565b92915050565b600082825260208201905092915050565b7f536e617073686f744e46543a20696e76616c6964206f70657261746f7220616460008201527f6472657373000000000000000000000000000000000000000000000000000000602082015250565b60006108586025836107eb565b9150610863826107fc565b604082019050919050565b600060208201905081810360008301526108878161084b565b9050919050565b7f536e617073686f744e46543a20696e76616c696420726f79616c74792072656360008201527f6569766572000000000000000000000000000000000000000000000000000000602082015250565b60006108ea6025836107eb565b91506108f58261088e565b604082019050919050565b60006020820190508181036000830152610919816108dd565b9050919050565b61489b8061092f6000396000f3fe608060405234801561001057600080fd5b50600436106102115760003560e01c80636352211e11610125578063a22cb465116100ad578063c87b56dd1161007c578063c87b56dd14610605578063cfdbf25414610635578063d6565a2d14610653578063e985e9c514610686578063f2fde38b146106b657610211565b8063a22cb46514610593578063b3ab15fb146105af578063b88d4fde146105cb578063c63adb2b146105e757610211565b80638da5cb5b116100f45780638da5cb5b146104e95780638f2fc60b1461050757806395c4cc621461052357806395d89b41146105575780639fbc87131461057557610211565b80636352211e1461047557806370a08231146104a5578063715018a6146104d55780638456cb59146104df57610211565b80632a55205a116101a857806342842e0e1161017757806342842e0e146103d15780634f6ccce7146103ed57806355f804b31461041d578063570ca735146104395780635c975abb1461045757610211565b80632a55205a1461034a5780632f745c591461037b5780633c101b2a146103ab5780633f4ba83a146103c757610211565b80630d0f2564116101e45780630d0f2564146102b057806318160ddd146102e057806323b872dd146102fe57806327b45faf1461031a57610211565b806301ffc9a71461021657806306fdde0314610246578063081812fc14610264578063095ea7b314610294575b600080fd5b610230600480360381019061022b9190613115565b6106d2565b60405161023d919061315d565b60405180910390f35b61024e61074c565b60405161025b9190613208565b60405180910390f35b61027e60048036038101906102799190613260565b6107de565b60405161028b91906132ce565b60405180910390f35b6102ae60048036038101906102a99190613315565b6107fa565b005b6102ca60048036038101906102c591906133df565b610810565b6040516102d791906134aa565b60405180910390f35b6102e8610ab2565b6040516102f591906134aa565b60405180910390f35b610318600480360381019061031391906134c5565b610abf565b005b610334600480360381019061032f9190613518565b610bc1565b6040516103419190613208565b60405180910390f35b610364600480360381019061035f9190613545565b610da5565b604051610372929190613585565b60405180910390f35b61039560048036038101906103909190613315565b610e17565b6040516103a291906134aa565b60405180910390f35b6103c560048036038101906103c091906136b0565b610ec0565b005b6103cf611313565b005b6103eb60048036038101906103e691906134c5565b61136f565b005b61040760048036038101906104029190613260565b61138f565b60405161041491906134aa565b60405180910390f35b610437600480360381019061043291906137ac565b611405565b005b610441611423565b60405161044e91906132ce565b60405180910390f35b61045f611449565b60405161046c919061315d565b60405180910390f35b61048f600480360381019061048a9190613260565b61145c565b60405161049c91906132ce565b60405180910390f35b6104bf60048036038101906104ba91906137f9565b61146e565b6040516104cc91906134aa565b60405180910390f35b6104dd611528565b005b6104e761153c565b005b6104f1611598565b6040516104fe91906132ce565b60405180910390f35b610521600480360381019061051c919061386a565b6115c2565b005b61053d60048036038101906105389190613260565b611750565b60405161054e959493929190613921565b60405180910390f35b61055f61198c565b60405161056c9190613208565b60405180910390f35b61057d611a1e565b60405161058a91906132ce565b60405180910390f35b6105ad60048036038101906105a891906139ae565b611a44565b005b6105c960048036038101906105c491906137f9565b611a5a565b005b6105e560048036038101906105e09190613b1e565b611b91565b005b6105ef611bb6565b6040516105fc9190613bb0565b60405180910390f35b61061f600480360381019061061a9190613260565b611bd4565b60405161062c9190613208565b60405180910390f35b61063d611c8c565b60405161064a91906134aa565b60405180910390f35b61066d60048036038101906106689190613260565b611c91565b60405161067d9493929190613bcb565b60405180910390f35b6106a0600480360381019061069b9190613c1e565b611dde565b6040516106ad919061315d565b60405180910390f35b6106d060048036038101906106cb91906137f9565b611e72565b005b60007f2a55205a000000000000000000000000000000000000000000000000000000007bffffffffffffffffffffffffffffffffffffffffffffffffffffffff1916827bffffffffffffffffffffffffffffffffffffffffffffffffffffffff19161480610745575061074482611ef8565b5b9050919050565b60606000805461075b90613c8d565b80601f016020809104026020016040519081016040528092919081815260200182805461078790613c8d565b80156107d45780601f106107a9576101008083540402835291602001916107d4565b820191906000526020600020905b8154815290600101906020018083116107b757829003601f168201915b5050505050905090565b60006107e982611f72565b506107f382611ffa565b9050919050565b61080c8282610807612037565b61203f565b5050565b6000600b60009054906101000a900473ffffffffffffffffffffffffffffffffffffffff1673ffffffffffffffffffffffffffffffffffffffff163373ffffffffffffffffffffffffffffffffffffffff16146108a2576040517f08c379a000000000000000000000000000000000000000000000000000000000815260040161089990613d30565b60405180910390fd5b601060009054906101000a900460ff16156108f2576040517f08c379a00000000000000000000000000000000000000000000000000000000081526004016108e990613d9c565b60405180910390fd5b6000600c600081548092919061090790613deb565b9190505590506109178982612051565b604051806080016040528089898080601f016020809104026020016040519081016040528093929190818152602001838380828437600081840152601f19601f82011690508083019250505050505050815260200187600481111561097f5761097e6138aa565b5b815260200186815260200185858080601f016020809104026020016040519081016040528093929190818152602001838380828437600081840152601f19601f82011690508083019250505050505050815250600d600083815260200190815260200160002060008201518160000190816109fa9190613fdf565b5060208201518160010160006101000a81548160ff02191690836004811115610a2657610a256138aa565b5b0217905550604082015181600201556060820151816003019081610a4a9190613fdf565b50905050808973ffffffffffffffffffffffffffffffffffffffff167f965e7a3f12dd2af7d38decc78739550f0ca70b61818afcb1de9d41ec91d67c7488888c8c604051610a9b94939291906140de565b60405180910390a380915050979650505050505050565b6000600880549050905090565b600073ffffffffffffffffffffffffffffffffffffffff168273ffffffffffffffffffffffffffffffffffffffff1603610b315760006040517f64a0ae92000000000000000000000000000000000000000000000000000000008152600401610b2891906132ce565b60405180910390fd5b6000610b458383610b40612037565b61206f565b90508373ffffffffffffffffffffffffffffffffffffffff168173ffffffffffffffffffffffffffffffffffffffff1614610bbb578382826040517f64283d7b000000000000000000000000000000000000000000000000000000008152600401610bb29392919061411e565b60405180910390fd5b50505050565b606060006004811115610bd757610bd66138aa565b5b826004811115610bea57610be96138aa565b5b03610c2c576040518060400160405280600681526020017f686f75726c7900000000000000000000000000000000000000000000000000008152509050610da0565b60016004811115610c4057610c3f6138aa565b5b826004811115610c5357610c526138aa565b5b03610c95576040518060400160405280600581526020017f6461696c790000000000000000000000000000000000000000000000000000008152509050610da0565b60026004811115610ca957610ca86138aa565b5b826004811115610cbc57610cbb6138aa565b5b03610cfe576040518060400160405280600681526020017f7765656b6c7900000000000000000000000000000000000000000000000000008152509050610da0565b60036004811115610d1257610d116138aa565b5b826004811115610d2557610d246138aa565b5b03610d67576040518060400160405280600781526020017f6d6f6e74686c79000000000000000000000000000000000000000000000000008152509050610da0565b6040518060400160405280600781526020017f7370656369616c0000000000000000000000000000000000000000000000000081525090505b919050565b600080600e60009054906101000a900473ffffffffffffffffffffffffffffffffffffffff16612710600e60149054906101000a90046bffffffffffffffffffffffff166bffffffffffffffffffffffff1685610e029190614155565b610e0c91906141c6565b915091509250929050565b6000610e228361146e565b8210610e675782826040517fa57d13dc000000000000000000000000000000000000000000000000000000008152600401610e5e929190613585565b60405180910390fd5b600660008473ffffffffffffffffffffffffffffffffffffffff1673ffffffffffffffffffffffffffffffffffffffff168152602001908152602001600020600083815260200190815260200160002054905092915050565b600b60009054906101000a900473ffffffffffffffffffffffffffffffffffffffff1673ffffffffffffffffffffffffffffffffffffffff163373ffffffffffffffffffffffffffffffffffffffff1614610f50576040517f08c379a0000000000000000000000000000000000000000000000000000000008152600401610f4790613d30565b60405180910390fd5b601060009054906101000a900460ff1615610fa0576040517f08c379a0000000000000000000000000000000000000000000000000000000008152600401610f9790613d9c565b60405180910390fd5b6032888890501115610fe7576040517f08c379a0000000000000000000000000000000000000000000000000000000008152600401610fde90614243565b60405180910390fd5b858590508888905014801561100157508383905086869050145b801561101257508181905084849050145b611051576040517f08c379a0000000000000000000000000000000000000000000000000000000008152600401611048906142d5565b60405180910390fd5b60005b88889050811015611307576000600c600081548092919061107490613deb565b9190505590506110848b82612051565b60405180608001604052808b8b858181106110a2576110a16142f5565b5b90506020028101906110b49190614333565b8080601f016020809104026020016040519081016040528093929190818152602001838380828437600081840152601f19601f82011690508083019250505050505050815260200189898581811061110f5761110e6142f5565b5b90506020020160208101906111249190613518565b6004811115611136576111356138aa565b5b815260200187878581811061114e5761114d6142f5565b5b90506020020135815260200185858581811061116d5761116c6142f5565b5b905060200281019061117f9190614333565b8080601f016020809104026020016040519081016040528093929190818152602001838380828437600081840152601f19601f82011690508083019250505050505050815250600d600083815260200190815260200160002060008201518160000190816111ed9190613fdf565b5060208201518160010160006101000a81548160ff02191690836004811115611219576112186138aa565b5b021790555060408201518160020155606082015181600301908161123d9190613fdf565b50905050808b73ffffffffffffffffffffffffffffffffffffffff167f965e7a3f12dd2af7d38decc78739550f0ca70b61818afcb1de9d41ec91d67c748a8a8681811061128d5761128c6142f5565b5b90506020020160208101906112a29190613518565b8989878181106112b5576112b46142f5565b5b905060200201358e8e888181106112cf576112ce6142f5565b5b90506020028101906112e19190614333565b6040516112f194939291906140de565b60405180910390a3508080600101915050611054565b50505050505050505050565b61131b612085565b6000601060006101000a81548160ff0219169083151502179055507f5db9ee0a495bf2e6ff9c91a7834c1ba4fdd244a5e8aa4e537bd38aeae4b073aa3360405161136591906132ce565b60405180910390a1565b61138a83838360405180602001604052806000815250611b91565b505050565b6000611399610ab2565b82106113df576000826040517fa57d13dc0000000000000000000000000000000000000000000000000000000081526004016113d6929190613585565b60405180910390fd5b600882815481106113f3576113f26142f5565b5b90600052602060002001549050919050565b61140d612085565b8181600f918261141e9291906143a1565b505050565b600b60009054906101000a900473ffffffffffffffffffffffffffffffffffffffff1681565b601060009054906101000a900460ff1681565b600061146782611f72565b9050919050565b60008073ffffffffffffffffffffffffffffffffffffffff168273ffffffffffffffffffffffffffffffffffffffff16036114e15760006040517f89c62b640000000000000000000000000000000000000000000000000000000081526004016114d891906132ce565b60405180910390fd5b600360008373ffffffffffffffffffffffffffffffffffffffff1673ffffffffffffffffffffffffffffffffffffffff168152602001908152602001600020549050919050565b611530612085565b61153a600061210c565b565b611544612085565b6001601060006101000a81548160ff0219169083151502179055507f62e78cea01bee320cd4e420270b5ea74000d11b0c9f74754ebdbfc544b05a2583360405161158e91906132ce565b60405180910390a1565b6000600a60009054906101000a900473ffffffffffffffffffffffffffffffffffffffff16905090565b6115ca612085565b600073ffffffffffffffffffffffffffffffffffffffff168273ffffffffffffffffffffffffffffffffffffffff1603611639576040517f08c379a0000000000000000000000000000000000000000000000000000000008152600401611630906144e3565b60405180910390fd5b6103e8816bffffffffffffffffffffffff16111561168c576040517f08c379a00000000000000000000000000000000000000000000000000000000081526004016116839061454f565b60405180910390fd5b81600e60006101000a81548173ffffffffffffffffffffffffffffffffffffffff021916908373ffffffffffffffffffffffffffffffffffffffff16021790555080600e60146101000a8154816bffffffffffffffffffffffff02191690836bffffffffffffffffffffffff1602179055508173ffffffffffffffffffffffffffffffffffffffff167f8039bd6e4e7dba001c8840eb2e118d9d131246faa7d0d04335f7305127ec0b10826040516117449190613bb0565b60405180910390a25050565b600060606000806060600073ffffffffffffffffffffffffffffffffffffffff1661177a876121d2565b73ffffffffffffffffffffffffffffffffffffffff16036117d0576040517f08c379a00000000000000000000000000000000000000000000000000000000081526004016117c7906145bb565b60405180910390fd5b6000600d600088815260200190815260200160002060405180608001604052908160008201805461180090613c8d565b80601f016020809104026020016040519081016040528092919081815260200182805461182c90613c8d565b80156118795780601f1061184e57610100808354040283529160200191611879565b820191906000526020600020905b81548152906001019060200180831161185c57829003601f168201915b505050505081526020016001820160009054906101000a900460ff1660048111156118a7576118a66138aa565b5b60048111156118b9576118b86138aa565b5b8152602001600282015481526020016003820180546118d790613c8d565b80601f016020809104026020016040519081016040528092919081815260200182805461190390613c8d565b80156119505780601f1061192557610100808354040283529160200191611950565b820191906000526020600020905b81548152906001019060200180831161193357829003601f168201915b50505050508152505090506119648761145c565b8160000151826020015183604001518460600151955095509550955095505091939590929450565b60606001805461199b90613c8d565b80601f01602080910402602001604051908101604052809291908181526020018280546119c790613c8d565b8015611a145780601f106119e957610100808354040283529160200191611a14565b820191906000526020600020905b8154815290600101906020018083116119f757829003601f168201915b5050505050905090565b600e60009054906101000a900473ffffffffffffffffffffffffffffffffffffffff1681565b611a56611a4f612037565b838361220f565b5050565b611a62612085565b600073ffffffffffffffffffffffffffffffffffffffff168173ffffffffffffffffffffffffffffffffffffffff1603611ad1576040517f08c379a0000000000000000000000000000000000000000000000000000000008152600401611ac89061464d565b60405180910390fd5b8073ffffffffffffffffffffffffffffffffffffffff16600b60009054906101000a900473ffffffffffffffffffffffffffffffffffffffff1673ffffffffffffffffffffffffffffffffffffffff167ffbe5b6cbafb274f445d7fed869dc77a838d8243a22c460de156560e8857cad0360405160405180910390a380600b60006101000a81548173ffffffffffffffffffffffffffffffffffffffff021916908373ffffffffffffffffffffffffffffffffffffffff16021790555050565b611b9c848484610abf565b611bb0611ba7612037565b8585858561237e565b50505050565b600e60149054906101000a90046bffffffffffffffffffffffff1681565b6060600073ffffffffffffffffffffffffffffffffffffffff16611bf7836121d2565b73ffffffffffffffffffffffffffffffffffffffff1603611c4d576040517f08c379a0000000000000000000000000000000000000000000000000000000008152600401611c44906145bb565b60405180910390fd5b600f600d6000848152602001908152602001600020600001604051602001611c769291906146fb565b6040516020818303038152906040529050919050565b603281565b600d602052806000526040600020600091509050806000018054611cb490613c8d565b80601f0160208091040260200160405190810160405280929190818152602001828054611ce090613c8d565b8015611d2d5780601f10611d0257610100808354040283529160200191611d2d565b820191906000526020600020905b815481529060010190602001808311611d1057829003601f168201915b5050505050908060010160009054906101000a900460ff1690806002015490806003018054611d5b90613c8d565b80601f0160208091040260200160405190810160405280929190818152602001828054611d8790613c8d565b8015611dd45780601f10611da957610100808354040283529160200191611dd4565b820191906000526020600020905b815481529060010190602001808311611db757829003601f168201915b5050505050905084565b6000600560008473ffffffffffffffffffffffffffffffffffffffff1673ffffffffffffffffffffffffffffffffffffffff16815260200190815260200160002060008373ffffffffffffffffffffffffffffffffffffffff1673ffffffffffffffffffffffffffffffffffffffff16815260200190815260200160002060009054906101000a900460ff16905092915050565b611e7a612085565b600073ffffffffffffffffffffffffffffffffffffffff168173ffffffffffffffffffffffffffffffffffffffff1603611eec5760006040517f1e4fbdf7000000000000000000000000000000000000000000000000000000008152600401611ee391906132ce565b60405180910390fd5b611ef58161210c565b50565b60007f780e9d63000000000000000000000000000000000000000000000000000000007bffffffffffffffffffffffffffffffffffffffffffffffffffffffff1916827bffffffffffffffffffffffffffffffffffffffffffffffffffffffff19161480611f6b5750611f6a8261252f565b5b9050919050565b600080611f7e836121d2565b9050600073ffffffffffffffffffffffffffffffffffffffff168173ffffffffffffffffffffffffffffffffffffffff1603611ff157826040517f7e273289000000000000000000000000000000000000000000000000000000008152600401611fe891906134aa565b60405180910390fd5b80915050919050565b60006004600083815260200190815260200160002060009054906101000a900473ffffffffffffffffffffffffffffffffffffffff169050919050565b600033905090565b61204c8383836001612611565b505050565b61206b8282604051806020016040528060008152506127d6565b5050565b600061207c8484846127fa565b90509392505050565b61208d612037565b73ffffffffffffffffffffffffffffffffffffffff166120ab611598565b73ffffffffffffffffffffffffffffffffffffffff161461210a576120ce612037565b6040517f118cdaa700000000000000000000000000000000000000000000000000000000815260040161210191906132ce565b60405180910390fd5b565b6000600a60009054906101000a900473ffffffffffffffffffffffffffffffffffffffff16905081600a60006101000a81548173ffffffffffffffffffffffffffffffffffffffff021916908373ffffffffffffffffffffffffffffffffffffffff1602179055508173ffffffffffffffffffffffffffffffffffffffff168173ffffffffffffffffffffffffffffffffffffffff167f8be0079c531659141344cd1fd0a4f28419497f9722a3daafe3b4186f6b6457e060405160405180910390a35050565b60006002600083815260200190815260200160002060009054906101000a900473ffffffffffffffffffffffffffffffffffffffff169050919050565b600073ffffffffffffffffffffffffffffffffffffffff168273ffffffffffffffffffffffffffffffffffffffff160361228057816040517f5b08ba1800000000000000000000000000000000000000000000000000000000815260040161227791906132ce565b60405180910390fd5b80600560008573ffffffffffffffffffffffffffffffffffffffff1673ffffffffffffffffffffffffffffffffffffffff16815260200190815260200160002060008473ffffffffffffffffffffffffffffffffffffffff1673ffffffffffffffffffffffffffffffffffffffff16815260200190815260200160002060006101000a81548160ff0219169083151502179055508173ffffffffffffffffffffffffffffffffffffffff168373ffffffffffffffffffffffffffffffffffffffff167f17307eab39ab6107e8899845ad3d59bd9653f200f220920489ca2b5937696c3183604051612371919061315d565b60405180910390a3505050565b60008373ffffffffffffffffffffffffffffffffffffffff163b1115612528578273ffffffffffffffffffffffffffffffffffffffff1663150b7a02868685856040518563ffffffff1660e01b81526004016123dd9493929190614774565b6020604051808303816000875af192505050801561241957506040513d601f19601f8201168201806040525081019061241691906147d5565b60015b61249d573d8060008114612449576040519150601f19603f3d011682016040523d82523d6000602084013e61244e565b606091505b50600081510361249557836040517f64a0ae9200000000000000000000000000000000000000000000000000000000815260040161248c91906132ce565b60405180910390fd5b805160208201fd5b63150b7a0260e01b7bffffffffffffffffffffffffffffffffffffffffffffffffffffffff1916817bffffffffffffffffffffffffffffffffffffffffffffffffffffffff19161461252657836040517f64a0ae9200000000000000000000000000000000000000000000000000000000815260040161251d91906132ce565b60405180910390fd5b505b5050505050565b60007f80ac58cd000000000000000000000000000000000000000000000000000000007bffffffffffffffffffffffffffffffffffffffffffffffffffffffff1916827bffffffffffffffffffffffffffffffffffffffffffffffffffffffff191614806125fa57507f5b5e139f000000000000000000000000000000000000000000000000000000007bffffffffffffffffffffffffffffffffffffffffffffffffffffffff1916827bffffffffffffffffffffffffffffffffffffffffffffffffffffffff1916145b8061260a575061260982612917565b5b9050919050565b808061264a5750600073ffffffffffffffffffffffffffffffffffffffff168273ffffffffffffffffffffffffffffffffffffffff1614155b1561277e57600061265a84611f72565b9050600073ffffffffffffffffffffffffffffffffffffffff168373ffffffffffffffffffffffffffffffffffffffff16141580156126c557508273ffffffffffffffffffffffffffffffffffffffff168173ffffffffffffffffffffffffffffffffffffffff1614155b80156126d857506126d68184611dde565b155b1561271a57826040517fa9fbf51f00000000000000000000000000000000000000000000000000000000815260040161271191906132ce565b60405180910390fd5b811561277c57838573ffffffffffffffffffffffffffffffffffffffff168273ffffffffffffffffffffffffffffffffffffffff167f8c5be1e5ebec7d5bd14f71427d1e84f3dd0314c0f7b2291e5b200ac8c7c3b92560405160405180910390a45b505b836004600085815260200190815260200160002060006101000a81548173ffffffffffffffffffffffffffffffffffffffff021916908373ffffffffffffffffffffffffffffffffffffffff16021790555050505050565b6127e08383612981565b6127f56127eb612037565b600085858561237e565b505050565b600080612808858585612a7a565b9050600073ffffffffffffffffffffffffffffffffffffffff168173ffffffffffffffffffffffffffffffffffffffff160361284c5761284784612c94565b61288b565b8473ffffffffffffffffffffffffffffffffffffffff168173ffffffffffffffffffffffffffffffffffffffff161461288a576128898185612cdd565b5b5b600073ffffffffffffffffffffffffffffffffffffffff168573ffffffffffffffffffffffffffffffffffffffff16036128cd576128c884612dc8565b61290c565b8473ffffffffffffffffffffffffffffffffffffffff168173ffffffffffffffffffffffffffffffffffffffff161461290b5761290a8585612e99565b5b5b809150509392505050565b60007f01ffc9a7000000000000000000000000000000000000000000000000000000007bffffffffffffffffffffffffffffffffffffffffffffffffffffffff1916827bffffffffffffffffffffffffffffffffffffffffffffffffffffffff1916149050919050565b600073ffffffffffffffffffffffffffffffffffffffff168273ffffffffffffffffffffffffffffffffffffffff16036129f35760006040517f64a0ae920000000000000000000000000000000000000000000000000000000081526004016129ea91906132ce565b60405180910390fd5b6000612a018383600061206f565b9050600073ffffffffffffffffffffffffffffffffffffffff168173ffffffffffffffffffffffffffffffffffffffff1614612a755760006040517f73c6ac6e000000000000000000000000000000000000000000000000000000008152600401612a6c91906132ce565b60405180910390fd5b505050565b600080612a86846121d2565b9050600073ffffffffffffffffffffffffffffffffffffffff168373ffffffffffffffffffffffffffffffffffffffff1614612ac857612ac7818486612f24565b5b600073ffffffffffffffffffffffffffffffffffffffff168173ffffffffffffffffffffffffffffffffffffffff1614612b5957612b0a600085600080612611565b6001600360008373ffffffffffffffffffffffffffffffffffffffff1673ffffffffffffffffffffffffffffffffffffffff168152602001908152602001600020600082825403925050819055505b600073ffffffffffffffffffffffffffffffffffffffff168573ffffffffffffffffffffffffffffffffffffffff1614612bdc576001600360008773ffffffffffffffffffffffffffffffffffffffff1673ffffffffffffffffffffffffffffffffffffffff168152602001908152602001600020600082825401925050819055505b846002600086815260200190815260200160002060006101000a81548173ffffffffffffffffffffffffffffffffffffffff021916908373ffffffffffffffffffffffffffffffffffffffff160217905550838573ffffffffffffffffffffffffffffffffffffffff168273ffffffffffffffffffffffffffffffffffffffff167fddf252ad1be2c89b69c2b068fc378daa952ba7f163c4a11628f55a4df523b3ef60405160405180910390a4809150509392505050565b6008805490506009600083815260200190815260200160002081905550600881908060018154018082558091505060019003906000526020600020016000909190919091505550565b6000612ce88361146e565b90506000600760008481526020019081526020016000205490506000600660008673ffffffffffffffffffffffffffffffffffffffff1673ffffffffffffffffffffffffffffffffffffffff1681526020019081526020016000209050828214612d945760008160008581526020019081526020016000205490508082600085815260200190815260200160002081905550826007600083815260200190815260200160002081905550505b6007600085815260200190815260200160002060009055806000848152602001908152602001600020600090555050505050565b60006001600880549050612ddc9190614802565b9050600060096000848152602001908152602001600020549050600060088381548110612e0c57612e0b6142f5565b5b906000526020600020015490508060088381548110612e2e57612e2d6142f5565b5b906000526020600020018190555081600960008381526020019081526020016000208190555060096000858152602001908152602001600020600090556008805480612e7d57612e7c614836565b5b6001900381819060005260206000200160009055905550505050565b60006001612ea68461146e565b612eb09190614802565b905081600660008573ffffffffffffffffffffffffffffffffffffffff1673ffffffffffffffffffffffffffffffffffffffff168152602001908152602001600020600083815260200190815260200160002081905550806007600084815260200190815260200160002081905550505050565b612f2f838383612fe8565b612fe357600073ffffffffffffffffffffffffffffffffffffffff168373ffffffffffffffffffffffffffffffffffffffff1603612fa457806040517f7e273289000000000000000000000000000000000000000000000000000000008152600401612f9b91906134aa565b60405180910390fd5b81816040517f177e802f000000000000000000000000000000000000000000000000000000008152600401612fda929190613585565b60405180910390fd5b505050565b60008073ffffffffffffffffffffffffffffffffffffffff168373ffffffffffffffffffffffffffffffffffffffff16141580156130a057508273ffffffffffffffffffffffffffffffffffffffff168473ffffffffffffffffffffffffffffffffffffffff16148061306157506130608484611dde565b5b8061309f57508273ffffffffffffffffffffffffffffffffffffffff1661308783611ffa565b73ffffffffffffffffffffffffffffffffffffffff16145b5b90509392505050565b6000604051905090565b600080fd5b600080fd5b60007fffffffff0000000000000000000000000000000000000000000000000000000082169050919050565b6130f2816130bd565b81146130fd57600080fd5b50565b60008135905061310f816130e9565b92915050565b60006020828403121561312b5761312a6130b3565b5b600061313984828501613100565b91505092915050565b60008115159050919050565b61315781613142565b82525050565b6000602082019050613172600083018461314e565b92915050565b600081519050919050565b600082825260208201905092915050565b60005b838110156131b2578082015181840152602081019050613197565b60008484015250505050565b6000601f19601f8301169050919050565b60006131da82613178565b6131e48185613183565b93506131f4818560208601613194565b6131fd816131be565b840191505092915050565b6000602082019050818103600083015261322281846131cf565b905092915050565b6000819050919050565b61323d8161322a565b811461324857600080fd5b50565b60008135905061325a81613234565b92915050565b600060208284031215613276576132756130b3565b5b60006132848482850161324b565b91505092915050565b600073ffffffffffffffffffffffffffffffffffffffff82169050919050565b60006132b88261328d565b9050919050565b6132c8816132ad565b82525050565b60006020820190506132e360008301846132bf565b92915050565b6132f2816132ad565b81146132fd57600080fd5b50565b60008135905061330f816132e9565b92915050565b6000806040838503121561332c5761332b6130b3565b5b600061333a85828601613300565b925050602061334b8582860161324b565b9150509250929050565b600080fd5b600080fd5b600080fd5b60008083601f84011261337a57613379613355565b5b8235905067ffffffffffffffff8111156133975761339661335a565b5b6020830191508360018202830111156133b3576133b261335f565b5b9250929050565b600581106133c757600080fd5b50565b6000813590506133d9816133ba565b92915050565b600080600080600080600060a0888a0312156133fe576133fd6130b3565b5b600061340c8a828b01613300565b975050602088013567ffffffffffffffff81111561342d5761342c6130b8565b5b6134398a828b01613364565b9650965050604061344c8a828b016133ca565b945050606061345d8a828b0161324b565b935050608088013567ffffffffffffffff81111561347e5761347d6130b8565b5b61348a8a828b01613364565b925092505092959891949750929550565b6134a48161322a565b82525050565b60006020820190506134bf600083018461349b565b92915050565b6000806000606084860312156134de576134dd6130b3565b5b60006134ec86828701613300565b93505060206134fd86828701613300565b925050604061350e8682870161324b565b9150509250925092565b60006020828403121561352e5761352d6130b3565b5b600061353c848285016133ca565b91505092915050565b6000806040838503121561355c5761355b6130b3565b5b600061356a8582860161324b565b925050602061357b8582860161324b565b9150509250929050565b600060408201905061359a60008301856132bf565b6135a7602083018461349b565b9392505050565b60008083601f8401126135c4576135c3613355565b5b8235905067ffffffffffffffff8111156135e1576135e061335a565b5b6020830191508360208202830111156135fd576135fc61335f565b5b9250929050565b60008083601f84011261361a57613619613355565b5b8235905067ffffffffffffffff8111156136375761363661335a565b5b6020830191508360208202830111156136535761365261335f565b5b9250929050565b60008083601f8401126136705761366f613355565b5b8235905067ffffffffffffffff81111561368d5761368c61335a565b5b6020830191508360208202830111156136a9576136a861335f565b5b9250929050565b600080600080600080600080600060a08a8c0312156136d2576136d16130b3565b5b60006136e08c828d01613300565b99505060208a013567ffffffffffffffff811115613701576137006130b8565b5b61370d8c828d016135ae565b985098505060408a013567ffffffffffffffff8111156137305761372f6130b8565b5b61373c8c828d01613604565b965096505060608a013567ffffffffffffffff81111561375f5761375e6130b8565b5b61376b8c828d0161365a565b945094505060808a013567ffffffffffffffff81111561378e5761378d6130b8565b5b61379a8c828d016135ae565b92509250509295985092959850929598565b600080602083850312156137c3576137c26130b3565b5b600083013567ffffffffffffffff8111156137e1576137e06130b8565b5b6137ed85828601613364565b92509250509250929050565b60006020828403121561380f5761380e6130b3565b5b600061381d84828501613300565b91505092915050565b60006bffffffffffffffffffffffff82169050919050565b61384781613826565b811461385257600080fd5b50565b6000813590506138648161383e565b92915050565b60008060408385031215613881576138806130b3565b5b600061388f85828601613300565b92505060206138a085828601613855565b9150509250929050565b7f4e487b7100000000000000000000000000000000000000000000000000000000600052602160045260246000fd5b600581106138ea576138e96138aa565b5b50565b60008190506138fb826138d9565b919050565b600061390b826138ed565b9050919050565b61391b81613900565b82525050565b600060a08201905061393660008301886132bf565b818103602083015261394881876131cf565b90506139576040830186613912565b613964606083018561349b565b818103608083015261397681846131cf565b90509695505050505050565b61398b81613142565b811461399657600080fd5b50565b6000813590506139a881613982565b92915050565b600080604083850312156139c5576139c46130b3565b5b60006139d385828601613300565b92505060206139e485828601613999565b9150509250929050565b600080fd5b7f4e487b7100000000000000000000000000000000000000000000000000000000600052604160045260246000fd5b613a2b826131be565b810181811067ffffffffffffffff82111715613a4a57613a496139f3565b5b80604052505050565b6000613a5d6130a9565b9050613a698282613a22565b919050565b600067ffffffffffffffff821115613a8957613a886139f3565b5b613a92826131be565b9050602081019050919050565b82818337600083830152505050565b6000613ac1613abc84613a6e565b613a53565b905082815260208101848484011115613add57613adc6139ee565b5b613ae8848285613a9f565b509392505050565b600082601f830112613b0557613b04613355565b5b8135613b15848260208601613aae565b91505092915050565b60008060008060808587031215613b3857613b376130b3565b5b6000613b4687828801613300565b9450506020613b5787828801613300565b9350506040613b688782880161324b565b925050606085013567ffffffffffffffff811115613b8957613b886130b8565b5b613b9587828801613af0565b91505092959194509250565b613baa81613826565b82525050565b6000602082019050613bc56000830184613ba1565b92915050565b60006080820190508181036000830152613be581876131cf565b9050613bf46020830186613912565b613c01604083018561349b565b8181036060830152613c1381846131cf565b905095945050505050565b60008060408385031215613c3557613c346130b3565b5b6000613c4385828601613300565b9250506020613c5485828601613300565b9150509250929050565b7f4e487b7100000000000000000000000000000000000000000000000000000000600052602260045260246000fd5b60006002820490506001821680613ca557607f821691505b602082108103613cb857613cb7613c5e565b5b50919050565b7f536e617073686f744e46543a2063616c6c6572206973206e6f74206f7065726160008201527f746f720000000000000000000000000000000000000000000000000000000000602082015250565b6000613d1a602383613183565b9150613d2582613cbe565b604082019050919050565b60006020820190508181036000830152613d4981613d0d565b9050919050565b7f536e617073686f744e46543a2070617573656400000000000000000000000000600082015250565b6000613d86601383613183565b9150613d9182613d50565b602082019050919050565b60006020820190508181036000830152613db581613d79565b9050919050565b7f4e487b7100000000000000000000000000000000000000000000000000000000600052601160045260246000fd5b6000613df68261322a565b91507fffffffffffffffffffffffffffffffffffffffffffffffffffffffffffffffff8203613e2857613e27613dbc565b5b600182019050919050565b60008190508160005260206000209050919050565b60006020601f8301049050919050565b600082821b905092915050565b600060088302613e957fffffffffffffffffffffffffffffffffffffffffffffffffffffffffffffffff82613e58565b613e9f8683613e58565b95508019841693508086168417925050509392505050565b6000819050919050565b6000613edc613ed7613ed28461322a565b613eb7565b61322a565b9050919050565b6000819050919050565b613ef683613ec1565b613f0a613f0282613ee3565b848454613e65565b825550505050565b600090565b613f1f613f12565b613f2a818484613eed565b505050565b5b81811015613f4e57613f43600082613f17565b600181019050613f30565b5050565b601f821115613f9357613f6481613e33565b613f6d84613e48565b81016020851015613f7c578190505b613f90613f8885613e48565b830182613f2f565b50505b505050565b600082821c905092915050565b6000613fb660001984600802613f98565b1980831691505092915050565b6000613fcf8383613fa5565b9150826002028217905092915050565b613fe882613178565b67ffffffffffffffff811115614001576140006139f3565b5b61400b8254613c8d565b614016828285613f52565b600060209050601f8311600181146140495760008415614037578287015190505b6140418582613fc3565b8655506140a9565b601f19841661405786613e33565b60005b8281101561407f5784890151825560018201915060208501945060208101905061405a565b8683101561409c5784890151614098601f891682613fa5565b8355505b6001600288020188555050505b505050505050565b60006140bd8385613183565b93506140ca838584613a9f565b6140d3836131be565b840190509392505050565b60006060820190506140f36000830187613912565b614100602083018661349b565b81810360408301526141138184866140b1565b905095945050505050565b600060608201905061413360008301866132bf565b614140602083018561349b565b61414d60408301846132bf565b949350505050565b60006141608261322a565b915061416b8361322a565b92508282026141798161322a565b915082820484148315176141905761418f613dbc565b5b5092915050565b7f4e487b7100000000000000000000000000000000000000000000000000000000600052601260045260246000fd5b60006141d18261322a565b91506141dc8361322a565b9250826141ec576141eb614197565b5b828204905092915050565b7f536e617073686f744e46543a20626174636820746f6f206c6172676500000000600082015250565b600061422d601c83613183565b9150614238826141f7565b602082019050919050565b6000602082019050818103600083015261425c81614220565b9050919050565b7f536e617073686f744e46543a206172726179206c656e677468206d69736d617460008201527f6368000000000000000000000000000000000000000000000000000000000000602082015250565b60006142bf602283613183565b91506142ca82614263565b604082019050919050565b600060208201905081810360008301526142ee816142b2565b9050919050565b7f4e487b7100000000000000000000000000000000000000000000000000000000600052603260045260246000fd5b600080fd5b600080fd5b600080fd5b600080833560016020038436030381126143505761434f614324565b5b80840192508235915067ffffffffffffffff82111561437257614371614329565b5b60208301925060018202360383131561438e5761438d61432e565b5b509250929050565b600082905092915050565b6143ab8383614396565b67ffffffffffffffff8111156143c4576143c36139f3565b5b6143ce8254613c8d565b6143d9828285613f52565b6000601f83116001811461440857600084156143f6578287013590505b6144008582613fc3565b865550614468565b601f19841661441686613e33565b60005b8281101561443e57848901358255600182019150602085019450602081019050614419565b8683101561445b5784890135614457601f891682613fa5565b8355505b6001600288020188555050505b50505050505050565b7f536e617073686f744e46543a20696e76616c696420726563656976657220616460008201527f6472657373000000000000000000000000000000000000000000000000000000602082015250565b60006144cd602583613183565b91506144d882614471565b604082019050919050565b600060208201905081810360008301526144fc816144c0565b9050919050565b7f536e617073686f744e46543a20726f79616c747920746f6f2068696768000000600082015250565b6000614539601d83613183565b915061454482614503565b602082019050919050565b600060208201905081810360008301526145688161452c565b9050919050565b7f536e617073686f744e46543a206e6f6e6578697374656e7420746f6b656e0000600082015250565b60006145a5601e83613183565b91506145b08261456f565b602082019050919050565b600060208201905081810360008301526145d481614598565b9050919050565b7f536e617073686f744e46543a20696e76616c6964206f70657261746f7220616460008201527f6472657373000000000000000000000000000000000000000000000000000000602082015250565b6000614637602583613183565b9150614642826145db565b604082019050919050565b600060208201905081810360008301526146668161462a565b9050919050565b600081905092915050565b6000815461468581613c8d565b61468f818661466d565b945060018216600081146146aa57600181146146bf576146f2565b60ff19831686528115158202860193506146f2565b6146c885613e33565b60005b838110156146ea578154818901526001820191506020810190506146cb565b838801955050505b50505092915050565b60006147078285614678565b91506147138284614678565b91508190509392505050565b600081519050919050565b600082825260208201905092915050565b60006147468261471f565b614750818561472a565b9350614760818560208601613194565b614769816131be565b840191505092915050565b600060808201905061478960008301876132bf565b61479660208301866132bf565b6147a3604083018561349b565b81810360608301526147b5818461473b565b905095945050505050565b6000815190506147cf816130e9565b92915050565b6000602082840312156147eb576147ea6130b3565b5b60006147f9848285016147c0565b91505092915050565b600061480d8261322a565b91506148188361322a565b92508282039050818111156148305761482f613dbc565b5b92915050565b7f4e487b7100000000000000000000000000000000000000000000000000000000600052603160045260246000fdfea26469706673582212205695992fae0a1e93d9c2637ccd776ebf99845c11d1bf5bae29abbbe9bf3075d164736f6c634300081b0033",
  "linkReferences": {},
  "deployedLinkReferences": {}
}