{
  "_format": "hh-sol-artifact-1",
  "contractName": "TrailNFT",
  "sourceName": "contracts/TrailNFT.sol",
  "abi": [
    {
      "inputs": [
        {
          "internalType": "address",
          "name": "_royaltyReceiver",
          "type": "address"
        },
        {
          "internalType": "address",
          "name": "_initialOwner",
          "type": "address"
        }
      ],
      "stateMutability": "nonpayable",
      "type": "constructor"
    },
    {
      "inputs": [],
      "name": "ERC721EnumerableForbiddenBatchMint",
      "type": "error"
    },
    {
      "inputs": [
        {
          "internalType": "address",
          "name": "sender",
          "type": "address"
        },
        {
          "internalType": "uint256",
          "name": "tokenId",
          "type": "uint256"
        },
        {
          "internalType": "address",
          "name": "owner",
          "type": "address"
        }
      ],
      "name": "ERC721IncorrectOwner",
      "type": "error"
    },
    {
      "inputs": [
        {
          "internalType": "address",
          "name": "operator",
          "type": "address"
        },
        {
          "internalType": "uint256",
          "name": "tokenId",
          "type": "uint256"
        }
      ],
      "name": "ERC721InsufficientApproval",
      "type": "error"
    },
    {
      "inputs": [
        {
          "internalType": "address",
          "name": "approver",
          "type": "address"
        }
      ],
      "name": "ERC721InvalidApprover",
      "type": "error"
    },
    {
      "inputs": [
        {
          "internalType": "address",
          "name": "operator",
          "type": "address"
        }
      ],
      "name": "ERC721InvalidOperator",
      "type": "error"
    },
    {
      "inputs": [
        {
          "internalType": "address",
          "name": "owner",
          "type": "address"
        }
      ],
      "name": "ERC721InvalidOwner",
      "type": "error"
    },
    {
      "inputs": [
        {
          "internalType": "address",
          "name": "receiver",
          "type": "address"
        }
      ],
      "name": "ERC721InvalidReceiver",
      "type": "error"
    },
    {
      "inputs": [
        {
          "internalType": "address",
          "name": "sender",
          "type": "address"
        }
      ],
      "name": "ERC721InvalidSender",
      "type": "error"
    },
    {
      "inputs": [
        {
          "internalType": "uint256",
          "name": "tokenId",
          "type": "uint256"
        }
      ],
      "name": "ERC721NonexistentToken",
      "type": "error"
    },
    {
      "inputs": [
        {
          "internalType": "address",
          "name": "owner",
          "type": "address"
        },
        {
          "internalType": "uint256",
          "name": "index",
          "type": "uint256"
        }
      ],
      "name": "ERC721OutOfBoundsIndex",
      "type": "error"
    },
    {
      "inputs": [
        {
          "internalType": "address",
          "name": "owner",
          "type": "address"
        }
      ],
      "name": "OwnableInvalidOwner",
      "type": "error"
    },
    {
      "inputs": [
        {
          "internalType": "address",
          "name": "account",
          "type": "address"
        }
      ],
      "name": "OwnableUnauthorizedAccount",
      "type": "error"
    },
    {
      "anonymous": false,
      "inputs": [
        {
          "indexed": true,
          "internalType": "address",
          "name": "owner",
          "type": "address"
        },
        {
          "indexed": true,
          "internalType": "address",
          "name": "approved",
          "type": "address"
        },
        {
          "indexed": true,
          "internalType": "uint256",
          "name": "tokenId",
          "type": "uint256"
        }
      ],
      "name": "Approval",
      "type": "event"
    },
    {
      "anonymous": false,
      "inputs": [
        {
          "indexed": true,
          "internalType": "address",
          "name": "owner",
          "type": "address"
        },
        {
          "indexed": true,
          "internalType": "address",
          "name": "operator",
          "type": "address"
        },
        {
          "indexed": false,
          "internalType": "bool",
          "name": "approved",
          "type": "bool"
        }
      ],
      "name": "ApprovalForAll",
      "type": "event"
    },
    {
      "anonymous": false,
      "inputs": [
        {
          "indexed": true,
          "internalType": "address",
          "name": "oldMinter",
          "type": "address"
        },
        {
          "indexed": true,
          "internalType": "address",
          "name": "newMinter",
          "type": "address"
        }
      ],
      "name": "MinterUpdated",
      "type": "event"
    },
    {
      "anonymous": false,
      "inputs": [
        {
          "indexed": true,
          "internalType": "address",
          "name": "previousOwner",
          "type": "address"
        },
        {
          "indexed": true,
          "internalType": "address",
          "name": "newOwner",
          "type": "address"
        }
      ],
      "name": "OwnershipTransferred",
      "type": "event"
    },
    {
      "anonymous": false,
      "inputs": [
        {
          "indexed": false,
          "internalType": "address",
          "name": "account",
          "type": "address"
        }
      ],
      "name": "Paused",
      "type": "event"
    },
    {
      "anonymous": false,
      "inputs": [
        {
          "indexed": true,
          "internalType": "address",
          "name": "receiver",
          "type": "address"
        },
        {
          "indexed": false,
          "internalType": "uint96",
          "name": "bps",
          "type": "uint96"
        }
      ],
      "name": "RoyaltyUpdated",
      "type": "event"
    },
    {
      "anonymous": false,
      "inputs": [
        {
          "indexed": true,
          "internalType": "address",
          "name": "to",
          "type": "address"
        },
        {
          "indexed": true,
          "internalType": "uint256",
          "name": "tokenId",
          "type": "uint256"
        },
        {
          "indexed": false,
          "internalType": "string",
          "name": "arweaveHash",
          "type": "string"
        },
        {
          "indexed": false,
          "internalType": "uint256",
          "name": "duration",
          "type": "uint256"
        }
      ],
      "name": "TrailMinted",
      "type": "event"
    },
    {
      "anonymous": false,
      "inputs": [
        {
          "indexed": true,
          "internalType": "address",
          "name": "from",
          "type": "address"
        },
        {
          "indexed": true,
          "internalType": "address",
          "name": "to",
          "type": "address"
        },
        {
          "indexed": true,
          "internalType": "uint256",
          "name": "tokenId",
          "type": "uint256"
        }
      ],
      "name": "Transfer",
      "type": "event"
    },
    {
      "anonymous": false,
      "inputs": [
        {
          "indexed": false,
          "internalType": "address",
          "name": "account",
          "type": "address"
        }
      ],
      "name": "Unpaused",
      "type": "event"
    },
    {
      "inputs": [
        {
          "internalType": "address",
          "name": "to",
          "type": "address"
        },
        {
          "internalType": "uint256",
          "name": "tokenId",
          "type": "uint256"
        }
      ],
      "name": "approve",
      "outputs": [],
      "stateMutability": "nonpayable",
      "type": "function"
    },
    {
      "inputs": [
        {
          "internalType": "address",
          "name": "owner",
          "type": "address"
        }
      ],
      "name": "balanceOf",
      "outputs": [
        {
          "internalType": "uint256",
          "name": "",
          "type": "uint256"
        }
      ],
      "stateMutability": "view",
      "type": "function"
    },
    {
      "inputs": [
        {
          "internalType": "uint256",
          "name": "tokenId",
          "type": "uint256"
        }
      ],
      "name": "getApproved",
      "outputs": [
        {
          "internalType": "address",
          "name": "",
          "type": "address"
        }
      ],
      "stateMutability": "view",
      "type": "function"
    },
    {
      "inputs": [
        {
          "internalType": "uint256",
          "name": "tokenId",
          "type": "uint256"
        }
      ],
      "name": "getTokenInfo",
      "outputs": [
        {
          "internalType": "address",
          "name": "owner",
          "type": "address"
        },
        {
          "internalType": "address",
          "name": "creator",
          "type": "address"
        },
        {
          "internalType": "string",
          "name": "arweaveHash",
          "type": "string"
        },
        {
          "internalType": "uint256",
          "name": "timestamp",
          "type": "uint256"
        },
        {
          "internalType": "uint256",
          "name": "duration",
          "type": "uint256"
        }
      ],
      "stateMutability": "view",
      "type": "function"
    },
    {
      "inputs": [
        {
          "internalType": "address",
          "name": "owner",
          "type": "address"
        },
        {
          "internalType": "address",
          "name": "operator",
          "type": "address"
        }
      ],
      "name": "isApprovedForAll",
      "outputs": [
        {
          "internalType": "bool",
          "name": "",
          "type": "bool"
        }
      ],
      "stateMutability": "view",
      "type": "function"
    },
    {
      "inputs": [
        {
          "internalType": "address",
          "name": "to",
          "type": "address"
        },
        {
          "internalType": "string",
          "name": "arweaveHash",
          "type": "string"
        },
        {
          "internalType": "uint256",
          "name": "duration",
          "type": "uint256"
        }
      ],
      "name": "mint",
      "outputs": [
        {
          "internalType": "uint256",
          "name": "",
          "type": "uint256"
        }
      ],
      "stateMutability": "nonpayable",
      "type": "function"
    },
    {
      "inputs": [],
      "name": "minter",
      "outputs": [
        {
          "internalType": "address",
          "name": "",
          "type": "address"
        }
      ],
      "stateMutability": "view",
      "type": "function"
    },
    {
      "inputs": [],
      "name": "name",
      "outputs": [
        {
          "internalType": "string",
          "name": "",
          "type": "string"
        }
      ],
      "stateMutability": "view",
      "type": "function"
    },
    {
      "inputs": [],
      "name": "owner",
      "outputs": [
        {
          "internalType": "address",
          "name": "",
          "type": "address"
        }
      ],
      "stateMutability": "view",
      "type": "function"
    },
    {
      "inputs": [
        {
          "internalType": "uint256",
          "name": "tokenId",
          "type": "uint256"
        }
      ],
      "name": "ownerOf",
      "outputs": [
        {
          "internalType": "address",
          "name": "",
          "type": "address"
        }
      ],
      "stateMutability": "view",
      "type": "function"
    },
    {
      "inputs": [],
      "name": "pause",
      "outputs": [],
      "stateMutability": "nonpayable",
      "type": "function"
    },
    {
      "inputs": [],
      "name": "paused",
      "outputs": [
        {
          "internalType": "bool",
          "name": "",
          "type": "bool"
        }
      ],
      "stateMutability": "view",
      "type": "function"
    },
    {
      "inputs": [],
      "name": "renounceOwnership",
      "outputs": [],
      "stateMutability": "nonpayable",
      "type": "function"
    },
    {
      "inputs": [],
      "name": "royaltyBps",
      "outputs": [
        {
          "internalType": "uint96",
          "name": "",
          "type": "uint96"
        }
      ],
      "stateMutability": "view",
      "type": "function"
    },
    {
      "inputs": [
        {
          "internalType": "uint256",
          "name": "",
          "type": "uint256"
        },
        {
          "internalType": "uint256",
          "name": "salePrice",
          "type": "uint256"
        }
      ],
      "name": "royaltyInfo",
      "outputs": [
        {
          "internalType": "address",
          "name": "receiver",
          "type": "address"
        },
        {
          "internalType": "uint256",
          "name": "royaltyAmount",
          "type": "uint256"
        }
      ],
      "stateMutability": "view",
      "type": "function"
    },
    {
      "inputs": [],
      "name": "royaltyReceiver",
      "outputs": [
        {
          "internalType": "address",
          "name": "",
          "type": "address"
        }
      ],
      "stateMutability": "view",
      "type": "function"
    },
    {
      "inputs": [
        {
          "internalType": "address",
          "name": "from",
          "type": "address"
        },
        {
          "internalType": "address",
          "name": "to",
          "type": "address"
        },
        {
          "internalType": "uint256",
          "name": "tokenId",
          "type": "uint256"
        }
      ],
      "name": "safeTransferFrom",
      "outputs": [],
      "stateMutability": "nonpayable",
      "type": "function"
    },
    {
      "inputs": [
        {
          "internalType": "address",
          "name": "from",
          "type": "address"
        },
        {
          "internalType": "address",
          "name": "to",
          "type": "address"
        },
        {
          "internalType": "uint256",
          "name": "tokenId",
          "type": "uint256"
        },
        {
          "internalType": "bytes",
          "name": "data",
          "type": "bytes"
        }
      ],
      "name": "safeTransferFrom",
      "outputs": [],
      "stateMutability": "nonpayable",
      "type": "function"
    },
    {
      "inputs": [
        {
          "internalType": "address",
          "name": "operator",
          "type": "address"
        },
        {
          "internalType": "bool",
          "name": "approved",
          "type": "bool"
        }
      ],
      "name": "setApprovalForAll",
      "outputs": [],
      "stateMutability": "nonpayable",
      "type": "function"
    },
    {
      "inputs": [
        {
          "internalType": "string",
          "name": "baseURI",
          "type": "string"
        }
      ],
      "name": "setBaseURI",
      "outputs": [],
      "stateMutability": "nonpayable",
      "type": "function"
    },
    {
      "inputs": [
        {
          "internalType": "address",
          "name": "_minter",
          "type": "address"
        }
      ],
      "name": "setMinter",
      "outputs": [],
      "stateMutability": "nonpayable",
      "type": "function"
    },
    {
      "inputs": [
        {
          "internalType": "address",
          "name": "_receiver",
          "type": "address"
        },
        {
          "internalType": "uint96",
          "name": "_bps",
          "type": "uint96"
        }
      ],
      "name": "setRoyalty",
      "outputs": [],
      "stateMutability": "nonpayable",
      "type": "function"
    },
    {
      "inputs": [
        {
          "internalType": "bytes4",
          "name": "interfaceId",
          "type": "bytes4"
        }
      ],
      "name": "supportsInterface",
      "outputs": [
        {
          "internalType": "bool",
          "name": "",
          "type": "bool"
        }
      ],
      "stateMutability": "view",
      "type": "function"
    },
    {
      "inputs": [],
      "name": "symbol",
      "outputs": [
        {
          "internalType": "string",
          "name": "",
          "type": "string"
        }
      ],
      "stateMutability": "view",
      "type": "function"
    },
    {
      "inputs": [
        {
          "internalType": "uint256",
          "name": "",
          "type": "uint256"
        }
      ],
      "name": "tokenArweaveHash",
      "outputs": [
        {
          "internalType": "string",
          "name": "",
          "type": "string"
        }
      ],
      "stateMutability": "view",
      "type": "function"
    },
    {
      "inputs": [
        {
          "internalType": "uint256",
          "name": "index",
          "type": "uint256"
        }
      ],
      "name": "tokenByIndex",
      "outputs": [
        {
          "internalType": "uint256",
          "name": "",
          "type": "uint256"
        }
      ],
      "stateMutability": "view",
      "type": "function"
    },
    {
      "inputs": [
        {
          "internalType": "uint256",
          "name": "",
          "type": "uint256"
        }
      ],
      "name": "tokenCreator",
      "outputs": [
        {
          "internalType": "address",
          "name": "",
          "type": "address"
        }
      ],
      "stateMutability": "view",
      "type": "function"
    },
    {
      "inputs": [
        {
          "internalType": "uint256",
          "name": "",
          "type": "uint256"
        }
      ],
      "name": "tokenDuration",
      "outputs": [
        {
          "internalType": "uint256",
          "name": "",
          "type": "uint256"
        }
      ],
      "stateMutability": "view",
      "type": "function"
    },
    {
      "inputs": [
        {
          "internalType": "address",
          "name": "owner",
          "type": "address"
        },
        {
          "internalType": "uint256",
          "name": "index",
          "type": "uint256"
        }
      ],
      "name": "tokenOfOwnerByIndex",
      "outputs": [
        {
          "internalType": "uint256",
          "name": "",
          "type": "uint256"
        }
      ],
      "stateMutability": "view",
      "type": "function"
    },
    {
      "inputs": [
        {
          "internalType": "uint256",
          "name": "",
          "type": "uint256"
        }
      ],
      "name": "tokenTimestamp",
      "outputs": [
        {
          "internalType": "uint256",
          "name": "",
          "type": "uint256"
        }
      ],
      "stateMutability": "view",
      "type": "function"
    },
    {
      "inputs": [
        {
          "internalType": "uint256",
          "name": "tokenId",
          "type": "uint256"
        }
      ],
      "name": "tokenURI",
      "outputs": [
        {
          "internalType": "string",
          "name": "",
          "type": "string"
        }
      ],
      "stateMutability": "view",
      "type": "function"
    },
    {
      "inputs": [],
      "name": "totalSupply",
      "outputs": [
        {
          "internalType": "uint256",
          "name": "",
          "type": "uint256"
        }
      ],
      "stateMutability": "view",
      "type": "function"
    },
    {
      "inputs": [
        {
          "internalType": "address",
          "name": "from",
          "type": "address"
        },
        {
          "internalType": "address",
          "name": "to",
          "type": "address"
        },
        {
          "internalType": "uint256",
          "name": "tokenId",
          "type": "uint256"
        }
      ],
      "name": "transferFrom",
      "outputs": [],
      "stateMutability": "nonpayable",
      "type": "function"
    },
    {
      "inputs": [
        {
          "internalType": "address",
          "name": "newOwner",
          "type": "address"
        }
      ],
      "name": "transferOwnership",
      "outputs": [],
      "stateMutability": "nonpayable",
      "type": "function"
    },
    {
      "inputs": [],
      "name": "unpause",
      "outputs": [],
      "stateMutability": "nonpayable",
      "type": "function"
    }
  ],
  "bytecode": "0x60806040526101f4601160146101000a8154816bffffffffffffffffffffffff02191690836bffffffffffffffffffffffff16021790555034801561004357600080fd5b506040516142cc3803806142cc8339818101604052810190610065919061039b565b806040518060400160405280601081526020017f504f4532303236202d20547261696c73000000000000000000000000000000008152506040518060400160405280600581526020017f545241494c00000000000000000000000000000000000000000000000000000081525081600090816100e1919061062b565b5080600190816100f1919061062b565b505050600073ffffffffffffffffffffffffffffffffffffffff168173ffffffffffffffffffffffffffffffffffffffff16036101665760006040517f1e4fbdf700000000000000000000000000000000000000000000000000000000815260040161015d919061070c565b60405180910390fd5b6101758161027260201b60201c565b50600073ffffffffffffffffffffffffffffffffffffffff168273ffffffffffffffffffffffffffffffffffffffff16036101e5576040517f08c379a00000000000000000000000000000000000000000000000000000000081526004016101dc906107aa565b60405180910390fd5b81601160006101000a81548173ffffffffffffffffffffffffffffffffffffffff021916908373ffffffffffffffffffffffffffffffffffffffff1602179055506040518060400160405280601481526020017f68747470733a2f2f617277656176652e6e65742f0000000000000000000000008152506012908161026a919061062b565b5050506107ca565b6000600a60009054906101000a900473ffffffffffffffffffffffffffffffffffffffff16905081600a60006101000a81548173ffffffffffffffffffffffffffffffffffffffff021916908373ffffffffffffffffffffffffffffffffffffffff1602179055508173ffffffffffffffffffffffffffffffffffffffff168173ffffffffffffffffffffffffffffffffffffffff167f8be0079c531659141344cd1fd0a4f28419497f9722a3daafe3b4186f6b6457e060405160405180910390a35050565b600080fd5b600073ffffffffffffffffffffffffffffffffffffffff82169050919050565b60006103688261033d565b9050919050565b6103788161035d565b811461038357600080fd5b50565b6000815190506103958161036f565b92915050565b600080604083850312156103b2576103b1610338565b5b60006103c085828601610386565b92505060206103d185828601610386565b9150509250929050565b600081519050919050565b7f4e487b7100000000000000000000000000000000000000000000000000000000600052604160045260246000fd5b7f4e487b7100000000000000000000000000000000000000000000000000000000600052602260045260246000fd5b6000600282049050600182168061045c57607f821691505b60208210810361046f5761046e610415565b5b50919050565b60008190508160005260206000209050919050565b60006020601f8301049050919050565b600082821b905092915050565b6000600883026104d77fffffffffffffffffffffffffffffffffffffffffffffffffffffffffffffffff8261049a565b6104e1868361049a565b95508019841693508086168417925050509392505050565b6000819050919050565b6000819050919050565b600061052861052361051e846104f9565b610503565b6104f9565b9050919050565b6000819050919050565b6105428361050d565b61055661054e8261052f565b8484546104a7565b825550505050565b600090565b61056b61055e565b610576818484610539565b505050565b5b8181101561059a5761058f600082610563565b60018101905061057c565b5050565b601f8211156105df576105b081610475565b6105b98461048a565b810160208510156105c8578190505b6105dc6105d48561048a565b83018261057b565b50505b505050565b600082821c905092915050565b6000610602600019846008026105e4565b1980831691505092915050565b600061061b83836105f1565b9150826002028217905092915050565b610634826103db565b67ffffffffffffffff81111561064d5761064c6103e6565b5b6106578254610444565b61066282828561059e565b600060209050601f8311600181146106955760008415610683578287015190505b61068d858261060f565b8655506106f5565b601f1984166106a386610475565b60005b828110156106cb578489015182556001820191506020850194506020810190506106a6565b868310156106e857848901516106e4601f8916826105f1565b8355505b6001600288020188555050505b505050505050565b6107068161035d565b82525050565b600060208201905061072160008301846106fd565b92915050565b600082825260208201905092915050565b7f547261696c4e46543a20696e76616c696420726f79616c74792072656365697660008201527f6572000000000000000000000000000000000000000000000000000000000000602082015250565b6000610794602283610727565b915061079f82610738565b604082019050919050565b600060208201905081810360008301526107c381610787565b9050919050565b613af3806107d96000396000f3fe608060405234801561001057600080fd5b50600436106102115760003560e01c80636352211e11610125578063a22cb465116100ad578063c87b56dd1161007c578063c87b56dd1461062d578063e985e9c51461065d578063eeddb6561461068d578063f2fde38b146106bd578063fca3b5aa146106d957610211565b8063a22cb465146105a7578063b88d4fde146105c3578063ba7aef43146105df578063c63adb2b1461060f57610211565b80638c7a63ae116100f45780638c7a63ae146104fd5780638da5cb5b146105315780638f2fc60b1461054f57806395d89b411461056b5780639fbc87131461058957610211565b80636352211e1461048957806370a08231146104b9578063715018a6146104e95780638456cb59146104f357610211565b80632a55205a116101a857806342842e0e1161017757806342842e0e146103d35780634494b540146103ef5780634f6ccce71461041f57806355f804b31461044f5780635c975abb1461046b57610211565b80632a55205a146103385780632f745c59146103695780633f4ba83a1461039957806340c1a064146103a357610211565b8063095ea7b3116101e4578063095ea7b3146102b25780630e2edd66146102ce57806318160ddd146102fe57806323b872dd1461031c57610211565b806301ffc9a71461021657806306fdde03146102465780630754617214610264578063081812fc14610282575b600080fd5b610230600480360381019061022b9190612972565b6106f5565b60405161023d91906129ba565b60405180910390f35b61024e61076f565b60405161025b9190612a65565b60405180910390f35b61026c610801565b6040516102799190612ac8565b60405180910390f35b61029c60048036038101906102979190612b19565b610827565b6040516102a99190612ac8565b60405180910390f35b6102cc60048036038101906102c79190612b72565b610843565b005b6102e860048036038101906102e39190612b19565b610859565b6040516102f59190612bc1565b60405180910390f35b610306610871565b6040516103139190612bc1565b60405180910390f35b61033660048036038101906103319190612bdc565b61087e565b005b610352600480360381019061034d9190612c2f565b610980565b604051610360929190612c6f565b60405180910390f35b610383600480360381019061037e9190612b72565b6109f2565b6040516103909190612bc1565b60405180910390f35b6103a1610a9b565b005b6103bd60048036038101906103b89190612b19565b610af7565b6040516103ca9190612ac8565b60405180910390f35b6103ed60048036038101906103e89190612bdc565b610b2a565b005b61040960048036038101906104049190612b19565b610b4a565b6040516104169190612a65565b60405180910390f35b61043960048036038101906104349190612b19565b610bea565b6040516104469190612bc1565b60405180910390f35b61046960048036038101906104649190612cfd565b610c60565b005b610473610c7e565b60405161048091906129ba565b60405180910390f35b6104a3600480360381019061049e9190612b19565b610c91565b6040516104b09190612ac8565b60405180910390f35b6104d360048036038101906104ce9190612d4a565b610ca3565b6040516104e09190612bc1565b60405180910390f35b6104f1610d5d565b005b6104fb610d71565b005b61051760048036038101906105129190612b19565b610dcd565b604051610528959493929190612d77565b60405180910390f35b610539610f63565b6040516105469190612ac8565b60405180910390f35b61056960048036038101906105649190612e15565b610f8d565b005b61057361111b565b6040516105809190612a65565b60405180910390f35b6105916111ad565b60405161059e9190612ac8565b60405180910390f35b6105c160048036038101906105bc9190612e81565b6111d3565b005b6105dd60048036038101906105d89190612ff1565b6111e9565b005b6105f960048036038101906105f49190613074565b61120e565b6040516106069190612bc1565b60405180910390f35b610617611419565b60405161062491906130f7565b60405180910390f35b61064760048036038101906106429190612b19565b611437565b6040516106549190612a65565b60405180910390f35b61067760048036038101906106729190613112565b6114ec565b60405161068491906129ba565b60405180910390f35b6106a760048036038101906106a29190612b19565b611580565b6040516106b49190612bc1565b60405180910390f35b6106d760048036038101906106d29190612d4a565b611598565b005b6106f360048036038101906106ee9190612d4a565b61161e565b005b60007f2a55205a000000000000000000000000000000000000000000000000000000007bffffffffffffffffffffffffffffffffffffffffffffffffffffffff1916827bffffffffffffffffffffffffffffffffffffffffffffffffffffffff19161480610768575061076782611755565b5b9050919050565b60606000805461077e90613181565b80601f01602080910402602001604051908101604052809291908181526020018280546107aa90613181565b80156107f75780601f106107cc576101008083540402835291602001916107f7565b820191906000526020600020905b8154815290600101906020018083116107da57829003601f168201915b5050505050905090565b600b60009054906101000a900473ffffffffffffffffffffffffffffffffffffffff1681565b6000610832826117cf565b5061083c82611857565b9050919050565b6108558282610850611894565b61189c565b5050565b60106020528060005260406000206000915090505481565b6000600880549050905090565b600073ffffffffffffffffffffffffffffffffffffffff168273ffffffffffffffffffffffffffffffffffffffff16036108f05760006040517f64a0ae920000000000000000000000000000000000000000000000000000000081526004016108e79190612ac8565b60405180910390fd5b600061090483836108ff611894565b6118ae565b90508373ffffffffffffffffffffffffffffffffffffffff168173ffffffffffffffffffffffffffffffffffffffff161461097a578382826040517f64283d7b000000000000000000000000000000000000000000000000000000008152600401610971939291906131b2565b60405180910390fd5b50505050565b600080601160009054906101000a900473ffffffffffffffffffffffffffffffffffffffff16612710601160149054906101000a90046bffffffffffffffffffffffff166bffffffffffffffffffffffff16856109dd9190613218565b6109e79190613289565b915091509250929050565b60006109fd83610ca3565b8210610a425782826040517fa57d13dc000000000000000000000000000000000000000000000000000000008152600401610a39929190612c6f565b60405180910390fd5b600660008473ffffffffffffffffffffffffffffffffffffffff1673ffffffffffffffffffffffffffffffffffffffff168152602001908152602001600020600083815260200190815260200160002054905092915050565b610aa36118c4565b6000601360006101000a81548160ff0219169083151502179055507f5db9ee0a495bf2e6ff9c91a7834c1ba4fdd244a5e8aa4e537bd38aeae4b073aa33604051610aed9190612ac8565b60405180910390a1565b600e6020528060005260406000206000915054906101000a900473ffffffffffffffffffffffffffffffffffffffff1681565b610b45838383604051806020016040528060008152506111e9565b505050565b600d6020528060005260406000206000915090508054610b6990613181565b80601f0160208091040260200160405190810160405280929190818152602001828054610b9590613181565b8015610be25780601f10610bb757610100808354040283529160200191610be2565b820191906000526020600020905b815481529060010190602001808311610bc557829003601f168201915b505050505081565b6000610bf4610871565b8210610c3a576000826040517fa57d13dc000000000000000000000000000000000000000000000000000000008152600401610c31929190612c6f565b60405180910390fd5b60088281548110610c4e57610c4d6132ba565b5b90600052602060002001549050919050565b610c686118c4565b818160129182610c799291906134a0565b505050565b601360009054906101000a900460ff1681565b6000610c9c826117cf565b9050919050565b60008073ffffffffffffffffffffffffffffffffffffffff168273ffffffffffffffffffffffffffffffffffffffff1603610d165760006040517f89c62b64000000000000000000000000000000000000000000000000000000008152600401610d0d9190612ac8565b60405180910390fd5b600360008373ffffffffffffffffffffffffffffffffffffffff1673ffffffffffffffffffffffffffffffffffffffff168152602001908152602001600020549050919050565b610d656118c4565b610d6f600061194b565b565b610d796118c4565b6001601360006101000a81548160ff0219169083151502179055507f62e78cea01bee320cd4e420270b5ea74000d11b0c9f74754ebdbfc544b05a25833604051610dc39190612ac8565b60405180910390a1565b6000806060600080600073ffffffffffffffffffffffffffffffffffffffff16610df687611a11565b73ffffffffffffffffffffffffffffffffffffffff1603610e4c576040517f08c379a0000000000000000000000000000000000000000000000000000000008152600401610e43906135bc565b60405180910390fd5b610e5586610c91565b600e600088815260200190815260200160002060009054906101000a900473ffffffffffffffffffffffffffffffffffffffff16600d6000898152602001908152602001600020600f60008a815260200190815260200160002054601060008b815260200190815260200160002054828054610ed090613181565b80601f0160208091040260200160405190810160405280929190818152602001828054610efc90613181565b8015610f495780601f10610f1e57610100808354040283529160200191610f49565b820191906000526020600020905b815481529060010190602001808311610f2c57829003601f168201915b505050505092509450945094509450945091939590929450565b6000600a60009054906101000a900473ffffffffffffffffffffffffffffffffffffffff16905090565b610f956118c4565b600073ffffffffffffffffffffffffffffffffffffffff168273ffffffffffffffffffffffffffffffffffffffff1603611004576040517f08c379a0000000000000000000000000000000000000000000000000000000008152600401610ffb9061364e565b60405180910390fd5b6103e8816bffffffffffffffffffffffff161115611057576040517f08c379a000000000000000000000000000000000000000000000000000000000815260040161104e906136ba565b60405180910390fd5b81601160006101000a81548173ffffffffffffffffffffffffffffffffffffffff021916908373ffffffffffffffffffffffffffffffffffffffff16021790555080601160146101000a8154816bffffffffffffffffffffffff02191690836bffffffffffffffffffffffff1602179055508173ffffffffffffffffffffffffffffffffffffffff167f8039bd6e4e7dba001c8840eb2e118d9d131246faa7d0d04335f7305127ec0b108260405161110f91906130f7565b60405180910390a25050565b60606001805461112a90613181565b80601f016020809104026020016040519081016040528092919081815260200182805461115690613181565b80156111a35780601f10611178576101008083540402835291602001916111a3565b820191906000526020600020905b81548152906001019060200180831161118657829003601f168201915b5050505050905090565b601160009054906101000a900473ffffffffffffffffffffffffffffffffffffffff1681565b6111e56111de611894565b8383611a4e565b5050565b6111f484848461087e565b6112086111ff611894565b85858585611bbd565b50505050565b6000600b60009054906101000a900473ffffffffffffffffffffffffffffffffffffffff1673ffffffffffffffffffffffffffffffffffffffff163373ffffffffffffffffffffffffffffffffffffffff16146112a0576040517f08c379a000000000000000000000000000000000000000000000000000000000815260040161129790613726565b60405180910390fd5b601360009054906101000a900460ff16156112f0576040517f08c379a00000000000000000000000000000000000000000000000000000000081526004016112e790613792565b60405180910390fd5b6000600c6000815480929190611305906137b2565b9190505590506113158682611d6e565b8484600d600084815260200190815260200160002091826113379291906134a0565b5085600e600083815260200190815260200160002060006101000a81548173ffffffffffffffffffffffffffffffffffffffff021916908373ffffffffffffffffffffffffffffffffffffffff16021790555042600f600083815260200190815260200160002081905550826010600083815260200190815260200160002081905550808673ffffffffffffffffffffffffffffffffffffffff167ff217c74b31db7d079edc98cf18faedb1fc252a90b84beb11bfac3517426ed69587878760405161140593929190613827565b60405180910390a380915050949350505050565b601160149054906101000a90046bffffffffffffffffffffffff1681565b6060600073ffffffffffffffffffffffffffffffffffffffff1661145a83611a11565b73ffffffffffffffffffffffffffffffffffffffff16036114b0576040517f08c379a00000000000000000000000000000000000000000000000000000000081526004016114a7906135bc565b60405180910390fd5b6012600d60008481526020019081526020016000206040516020016114d69291906138e7565b6040516020818303038152906040529050919050565b6000600560008473ffffffffffffffffffffffffffffffffffffffff1673ffffffffffffffffffffffffffffffffffffffff16815260200190815260200160002060008373ffffffffffffffffffffffffffffffffffffffff1673ffffffffffffffffffffffffffffffffffffffff16815260200190815260200160002060009054906101000a900460ff16905092915050565b600f6020528060005260406000206000915090505481565b6115a06118c4565b600073ffffffffffffffffffffffffffffffffffffffff168173ffffffffffffffffffffffffffffffffffffffff16036116125760006040517f1e4fbdf70000000000000000000000000000000000000000000000000000000081526004016116099190612ac8565b60405180910390fd5b61161b8161194b565b50565b6116266118c4565b600073ffffffffffffffffffffffffffffffffffffffff168173ffffffffffffffffffffffffffffffffffffffff1603611695576040517f08c379a000000000000000000000000000000000000000000000000000000000815260040161168c90613957565b60405180910390fd5b8073ffffffffffffffffffffffffffffffffffffffff16600b60009054906101000a900473ffffffffffffffffffffffffffffffffffffffff1673ffffffffffffffffffffffffffffffffffffffff167f1cf2de25c5bf439ac0287061c3a0fa69b3b02867d0ccfd2ded34e42577050b7360405160405180910390a380600b60006101000a81548173ffffffffffffffffffffffffffffffffffffffff021916908373ffffffffffffffffffffffffffffffffffffffff16021790555050565b60007f780e9d63000000000000000000000000000000000000000000000000000000007bffffffffffffffffffffffffffffffffffffffffffffffffffffffff1916827bffffffffffffffffffffffffffffffffffffffffffffffffffffffff191614806117c857506117c782611d8c565b5b9050919050565b6000806117db83611a11565b9050600073ffffffffffffffffffffffffffffffffffffffff168173ffffffffffffffffffffffffffffffffffffffff160361184e57826040517f7e2732890000000000000000000000000000000000000000000000000000000081526004016118459190612bc1565b60405180910390fd5b80915050919050565b60006004600083815260200190815260200160002060009054906101000a900473ffffffffffffffffffffffffffffffffffffffff169050919050565b600033905090565b6118a98383836001611e6e565b505050565b60006118bb848484612033565b90509392505050565b6118cc611894565b73ffffffffffffffffffffffffffffffffffffffff166118ea610f63565b73ffffffffffffffffffffffffffffffffffffffff16146119495761190d611894565b6040517f118cdaa70000000000000000000000000000000000000000000000000000000081526004016119409190612ac8565b60405180910390fd5b565b6000600a60009054906101000a900473ffffffffffffffffffffffffffffffffffffffff16905081600a60006101000a81548173ffffffffffffffffffffffffffffffffffffffff021916908373ffffffffffffffffffffffffffffffffffffffff1602179055508173ffffffffffffffffffffffffffffffffffffffff168173ffffffffffffffffffffffffffffffffffffffff167f8be0079c531659141344cd1fd0a4f28419497f9722a3daafe3b4186f6b6457e060405160405180910390a35050565b60006002600083815260200190815260200160002060009054906101000a900473ffffffffffffffffffffffffffffffffffffffff169050919050565b600073ffffffffffffffffffffffffffffffffffffffff168273ffffffffffffffffffffffffffffffffffffffff1603611abf57816040517f5b08ba18000000000000000000000000000000000000000000000000000000008152600401611ab69190612ac8565b60405180910390fd5b80600560008573ffffffffffffffffffffffffffffffffffffffff1673ffffffffffffffffffffffffffffffffffffffff16815260200190815260200160002060008473ffffffffffffffffffffffffffffffffffffffff1673ffffffffffffffffffffffffffffffffffffffff16815260200190815260200160002060006101000a81548160ff0219169083151502179055508173ffffffffffffffffffffffffffffffffffffffff168373ffffffffffffffffffffffffffffffffffffffff167f17307eab39ab6107e8899845ad3d59bd9653f200f220920489ca2b5937696c3183604051611bb091906129ba565b60405180910390a3505050565b60008373ffffffffffffffffffffffffffffffffffffffff163b1115611d67578273ffffffffffffffffffffffffffffffffffffffff1663150b7a02868685856040518563ffffffff1660e01b8152600401611c1c94939291906139cc565b6020604051808303816000875af1925050508015611c5857506040513d601f19601f82011682018060405250810190611c559190613a2d565b60015b611cdc573d8060008114611c88576040519150601f19603f3d011682016040523d82523d6000602084013e611c8d565b606091505b506000815103611cd457836040517f64a0ae92000000000000000000000000000000000000000000000000000000008152600401611ccb9190612ac8565b60405180910390fd5b805160208201fd5b63150b7a0260e01b7bffffffffffffffffffffffffffffffffffffffffffffffffffffffff1916817bffffffffffffffffffffffffffffffffffffffffffffffffffffffff191614611d6557836040517f64a0ae92000000000000000000000000000000000000000000000000000000008152600401611d5c9190612ac8565b60405180910390fd5b505b5050505050565b611d88828260405180602001604052806000815250612150565b5050565b60007f80ac58cd000000000000000000000000000000000000000000000000000000007bffffffffffffffffffffffffffffffffffffffffffffffffffffffff1916827bffffffffffffffffffffffffffffffffffffffffffffffffffffffff19161480611e5757507f5b5e139f000000000000000000000000000000000000000000000000000000007bffffffffffffffffffffffffffffffffffffffffffffffffffffffff1916827bffffffffffffffffffffffffffffffffffffffffffffffffffffffff1916145b80611e675750611e6682612174565b5b9050919050565b8080611ea75750600073ffffffffffffffffffffffffffffffffffffffff168273ffffffffffffffffffffffffffffffffffffffff1614155b15611fdb576000611eb7846117cf565b9050600073ffffffffffffffffffffffffffffffffffffffff168373ffffffffffffffffffffffffffffffffffffffff1614158015611f2257508273ffffffffffffffffffffffffffffffffffffffff168173ffffffffffffffffffffffffffffffffffffffff1614155b8015611f355750611f3381846114ec565b155b15611f7757826040517fa9fbf51f000000000000000000000000000000000000000000000000000000008152600401611f6e9190612ac8565b60405180910390fd5b8115611fd957838573ffffffffffffffffffffffffffffffffffffffff168273ffffffffffffffffffffffffffffffffffffffff167f8c5be1e5ebec7d5bd14f71427d1e84f3dd0314c0f7b2291e5b200ac8c7c3b92560405160405180910390a45b505b836004600085815260200190815260200160002060006101000a81548173ffffffffffffffffffffffffffffffffffffffff021916908373ffffffffffffffffffffffffffffffffffffffff16021790555050505050565b6000806120418585856121de565b9050600073ffffffffffffffffffffffffffffffffffffffff168173ffffffffffffffffffffffffffffffffffffffff160361208557612080846123f8565b6120c4565b8473ffffffffffffffffffffffffffffffffffffffff168173ffffffffffffffffffffffffffffffffffffffff16146120c3576120c28185612441565b5b5b600073ffffffffffffffffffffffffffffffffffffffff168573ffffffffffffffffffffffffffffffffffffffff1603612106576121018461252c565b612145565b8473ffffffffffffffffffffffffffffffffffffffff168173ffffffffffffffffffffffffffffffffffffffff16146121445761214385856125fd565b5b5b809150509392505050565b61215a8383612688565b61216f612165611894565b6000858585611bbd565b505050565b60007f01ffc9a7000000000000000000000000000000000000000000000000000000007bffffffffffffffffffffffffffffffffffffffffffffffffffffffff1916827bffffffffffffffffffffffffffffffffffffffffffffffffffffffff1916149050919050565b6000806121ea84611a11565b9050600073ffffffffffffffffffffffffffffffffffffffff168373ffffffffffffffffffffffffffffffffffffffff161461222c5761222b818486612781565b5b600073ffffffffffffffffffffffffffffffffffffffff168173ffffffffffffffffffffffffffffffffffffffff16146122bd5761226e600085600080611e6e565b6001600360008373ffffffffffffffffffffffffffffffffffffffff1673ffffffffffffffffffffffffffffffffffffffff168152602001908152602001600020600082825403925050819055505b600073ffffffffffffffffffffffffffffffffffffffff168573ffffffffffffffffffffffffffffffffffffffff1614612340576001600360008773ffffffffffffffffffffffffffffffffffffffff1673ffffffffffffffffffffffffffffffffffffffff168152602001908152602001600020600082825401925050819055505b846002600086815260200190815260200160002060006101000a81548173ffffffffffffffffffffffffffffffffffffffff021916908373ffffffffffffffffffffffffffffffffffffffff160217905550838573ffffffffffffffffffffffffffffffffffffffff168273ffffffffffffffffffffffffffffffffffffffff167fddf252ad1be2c89b69c2b068fc378daa952ba7f163c4a11628f55a4df523b3ef60405160405180910390a4809150509392505050565b6008805490506009600083815260200190815260200160002081905550600881908060018154018082558091505060019003906000526020600020016000909190919091505550565b600061244c83610ca3565b90506000600760008481526020019081526020016000205490506000600660008673ffffffffffffffffffffffffffffffffffffffff1673ffffffffffffffffffffffffffffffffffffffff16815260200190815260200160002090508282146124f85760008160008581526020019081526020016000205490508082600085815260200190815260200160002081905550826007600083815260200190815260200160002081905550505b6007600085815260200190815260200160002060009055806000848152602001908152602001600020600090555050505050565b600060016008805490506125409190613a5a565b90506000600960008481526020019081526020016000205490506000600883815481106125705761256f6132ba565b5b906000526020600020015490508060088381548110612592576125916132ba565b5b9060005260206000200181905550816009600083815260200190815260200160002081905550600960008581526020019081526020016000206000905560088054806125e1576125e0613a8e565b5b6001900381819060005260206000200160009055905550505050565b6000600161260a84610ca3565b6126149190613a5a565b905081600660008573ffffffffffffffffffffffffffffffffffffffff1673ffffffffffffffffffffffffffffffffffffffff168152602001908152602001600020600083815260200190815260200160002081905550806007600084815260200190815260200160002081905550505050565b600073ffffffffffffffffffffffffffffffffffffffff168273ffffffffffffffffffffffffffffffffffffffff16036126fa5760006040517f64a0ae920000000000000000000000000000000000000000000000000000000081526004016126f19190612ac8565b60405180910390fd5b6000612708838360006118ae565b9050600073ffffffffffffffffffffffffffffffffffffffff168173ffffffffffffffffffffffffffffffffffffffff161461277c5760006040517f73c6ac6e0000000000000000000000000000000000000000000000000000000081526004016127739190612ac8565b60405180910390fd5b505050565b61278c838383612845565b61284057600073ffffffffffffffffffffffffffffffffffffffff168373ffffffffffffffffffffffffffffffffffffffff160361280157806040517f7e2732890000000000000000000000000000000000000000000000000000000081526004016127f89190612bc1565b60405180910390fd5b81816040517f177e802f000000000000000000000000000000000000000000000000000000008152600401612837929190612c6f565b60405180910390fd5b505050565b60008073ffffffffffffffffffffffffffffffffffffffff168373ffffffffffffffffffffffffffffffffffffffff16141580156128fd57508273ffffffffffffffffffffffffffffffffffffffff168473ffffffffffffffffffffffffffffffffffffffff1614806128be57506128bd84846114ec565b5b806128fc57508273ffffffffffffffffffffffffffffffffffffffff166128e483611857565b73ffffffffffffffffffffffffffffffffffffffff16145b5b90509392505050565b6000604051905090565b600080fd5b600080fd5b60007fffffffff0000000000000000000000000000000000000000000000000000000082169050919050565b61294f8161291a565b811461295a57600080fd5b50565b60008135905061296c81612946565b92915050565b60006020828403121561298857612987612910565b5b60006129968482850161295d565b91505092915050565b60008115159050919050565b6129b48161299f565b82525050565b60006020820190506129cf60008301846129ab565b92915050565b600081519050919050565b600082825260208201905092915050565b60005b83811015612a0f5780820151818401526020810190506129f4565b60008484015250505050565b6000601f19601f8301169050919050565b6000612a37826129d5565b612a4181856129e0565b9350612a518185602086016129f1565b612a5a81612a1b565b840191505092915050565b60006020820190508181036000830152612a7f8184612a2c565b905092915050565b600073ffffffffffffffffffffffffffffffffffffffff82169050919050565b6000612ab282612a87565b9050919050565b612ac281612aa7565b82525050565b6000602082019050612add6000830184612ab9565b92915050565b6000819050919050565b612af681612ae3565b8114612b0157600080fd5b50565b600081359050612b1381612aed565b92915050565b600060208284031215612b2f57612b2e612910565b5b6000612b3d84828501612b04565b91505092915050565b612b4f81612aa7565b8114612b5a57600080fd5b50565b600081359050612b6c81612b46565b92915050565b60008060408385031215612b8957612b88612910565b5b6000612b9785828601612b5d565b9250506020612ba885828601612b04565b9150509250929050565b612bbb81612ae3565b82525050565b6000602082019050612bd66000830184612bb2565b92915050565b600080600060608486031215612bf557612bf4612910565b5b6000612c0386828701612b5d565b9350506020612c1486828701612b5d565b9250506040612c2586828701612b04565b9150509250925092565b60008060408385031215612c4657612c45612910565b5b6000612c5485828601612b04565b9250506020612c6585828601612b04565b9150509250929050565b6000604082019050612c846000830185612ab9565b612c916020830184612bb2565b9392505050565b600080fd5b600080fd5b600080fd5b60008083601f840112612cbd57612cbc612c98565b5b8235905067ffffffffffffffff811115612cda57612cd9612c9d565b5b602083019150836001820283011115612cf657612cf5612ca2565b5b9250929050565b60008060208385031215612d1457612d13612910565b5b600083013567ffffffffffffffff811115612d3257612d31612915565b5b612d3e85828601612ca7565b92509250509250929050565b600060208284031215612d6057612d5f612910565b5b6000612d6e84828501612b5d565b91505092915050565b600060a082019050612d8c6000830188612ab9565b612d996020830187612ab9565b8181036040830152612dab8186612a2c565b9050612dba6060830185612bb2565b612dc76080830184612bb2565b9695505050505050565b60006bffffffffffffffffffffffff82169050919050565b612df281612dd1565b8114612dfd57600080fd5b50565b600081359050612e0f81612de9565b92915050565b60008060408385031215612e2c57612e2b612910565b5b6000612e3a85828601612b5d565b9250506020612e4b85828601612e00565b9150509250929050565b612e5e8161299f565b8114612e6957600080fd5b50565b600081359050612e7b81612e55565b92915050565b60008060408385031215612e9857612e97612910565b5b6000612ea685828601612b5d565b9250506020612eb785828601612e6c565b9150509250929050565b600080fd5b7f4e487b7100000000000000000000000000000000000000000000000000000000600052604160045260246000fd5b612efe82612a1b565b810181811067ffffffffffffffff82111715612f1d57612f1c612ec6565b5b80604052505050565b6000612f30612906565b9050612f3c8282612ef5565b919050565b600067ffffffffffffffff821115612f5c57612f5b612ec6565b5b612f6582612a1b565b9050602081019050919050565b82818337600083830152505050565b6000612f94612f8f84612f41565b612f26565b905082815260208101848484011115612fb057612faf612ec1565b5b612fbb848285612f72565b509392505050565b600082601f830112612fd857612fd7612c98565b5b8135612fe8848260208601612f81565b91505092915050565b6000806000806080858703121561300b5761300a612910565b5b600061301987828801612b5d565b945050602061302a87828801612b5d565b935050604061303b87828801612b04565b925050606085013567ffffffffffffffff81111561305c5761305b612915565b5b61306887828801612fc3565b91505092959194509250565b6000806000806060858703121561308e5761308d612910565b5b600061309c87828801612b5d565b945050602085013567ffffffffffffffff8111156130bd576130bc612915565b5b6130c987828801612ca7565b935093505060406130dc87828801612b04565b91505092959194509250565b6130f181612dd1565b82525050565b600060208201905061310c60008301846130e8565b92915050565b6000806040838503121561312957613128612910565b5b600061313785828601612b5d565b925050602061314885828601612b5d565b9150509250929050565b7f4e487b7100000000000000000000000000000000000000000000000000000000600052602260045260246000fd5b6000600282049050600182168061319957607f821691505b6020821081036131ac576131ab613152565b5b50919050565b60006060820190506131c76000830186612ab9565b6131d46020830185612bb2565b6131e16040830184612ab9565b949350505050565b7f4e487b7100000000000000000000000000000000000000000000000000000000600052601160045260246000fd5b600061322382612ae3565b915061322e83612ae3565b925082820261323c81612ae3565b91508282048414831517613253576132526131e9565b5b5092915050565b7f4e487b7100000000000000000000000000000000000000000000000000000000600052601260045260246000fd5b600061329482612ae3565b915061329f83612ae3565b9250826132af576132ae61325a565b5b828204905092915050565b7f4e487b7100000000000000000000000000000000000000000000000000000000600052603260045260246000fd5b600082905092915050565b60008190508160005260206000209050919050565b60006020601f8301049050919050565b600082821b905092915050565b6000600883026133567fffffffffffffffffffffffffffffffffffffffffffffffffffffffffffffffff82613319565b6133608683613319565b95508019841693508086168417925050509392505050565b6000819050919050565b600061339d61339861339384612ae3565b613378565b612ae3565b9050919050565b6000819050919050565b6133b783613382565b6133cb6133c3826133a4565b848454613326565b825550505050565b600090565b6133e06133d3565b6133eb8184846133ae565b505050565b5b8181101561340f576134046000826133d8565b6001810190506133f1565b5050565b601f82111561345457613425816132f4565b61342e84613309565b8101602085101561343d578190505b61345161344985613309565b8301826133f0565b50505b505050565b600082821c905092915050565b600061347760001984600802613459565b1980831691505092915050565b60006134908383613466565b9150826002028217905092915050565b6134aa83836132e9565b67ffffffffffffffff8111156134c3576134c2612ec6565b5b6134cd8254613181565b6134d8828285613413565b6000601f83116001811461350757600084156134f5578287013590505b6134ff8582613484565b865550613567565b601f198416613515866132f4565b60005b8281101561353d57848901358255600182019150602085019450602081019050613518565b8683101561355a5784890135613556601f891682613466565b8355505b6001600288020188555050505b50505050505050565b7f547261696c4e46543a206e6f6e6578697374656e7420746f6b656e0000000000600082015250565b60006135a6601b836129e0565b91506135b182613570565b602082019050919050565b600060208201905081810360008301526135d581613599565b9050919050565b7f547261696c4e46543a20696e76616c696420726563656976657220616464726560008201527f7373000000000000000000000000000000000000000000000000000000000000602082015250565b60006136386022836129e0565b9150613643826135dc565b604082019050919050565b600060208201905081810360008301526136678161362b565b9050919050565b7f547261696c4e46543a20726f79616c747920746f6f2068696768000000000000600082015250565b60006136a4601a836129e0565b91506136af8261366e565b602082019050919050565b600060208201905081810360008301526136d381613697565b9050919050565b7f547261696c4e46543a2063616c6c6572206973206e6f74206d696e7465720000600082015250565b6000613710601e836129e0565b915061371b826136da565b602082019050919050565b6000602082019050818103600083015261373f81613703565b9050919050565b7f547261696c4e46543a2070617573656400000000000000000000000000000000600082015250565b600061377c6010836129e0565b915061378782613746565b602082019050919050565b600060208201905081810360008301526137ab8161376f565b9050919050565b60006137bd82612ae3565b91507fffffffffffffffffffffffffffffffffffffffffffffffffffffffffffffffff82036137ef576137ee6131e9565b5b600182019050919050565b600061380683856129e0565b9350613813838584612f72565b61381c83612a1b565b840190509392505050565b600060408201905081810360008301526138428185876137fa565b90506138516020830184612bb2565b949350505050565b600081905092915050565b6000815461387181613181565b61387b8186613859565b9450600182166000811461389657600181146138ab576138de565b60ff19831686528115158202860193506138de565b6138b4856132f4565b60005b838110156138d6578154818901526001820191506020810190506138b7565b838801955050505b50505092915050565b60006138f38285613864565b91506138ff8284613864565b91508190509392505050565b7f547261696c4e46543a20696e76616c6964206d696e7465722061646472657373600082015250565b60006139416020836129e0565b915061394c8261390b565b602082019050919050565b6000602082019050818103600083015261397081613934565b9050919050565b600081519050919050565b600082825260208201905092915050565b600061399e82613977565b6139a88185613982565b93506139b88185602086016129f1565b6139c181612a1b565b840191505092915050565b60006080820190506139e16000830187612ab9565b6139ee6020830186612ab9565b6139fb6040830185612bb2565b8181036060830152613a0d8184613993565b905095945050505050565b600081519050613a2781612946565b92915050565b600060208284031215613a4357613a42612910565b5b6000613a5184828501613a18565b91505092915050565b6000613a6582612ae3565b9150613a7083612ae3565b9250828203905081811115613a8857613a876131e9565b5b92915050565b7f4e487b7100000000000000000000000000000000000000000000000000000000600052603160045260246000fdfea2646970667358221220ff3a218b50e15bc6968184480495537fded9179d77a8a33d6965b568167be9b564736f6c634300081b0033",
  "linkReferences": {},
  "deployedLinkReferences": {}
}