{
  "_format": "hh-sol-artifact-1",
  "contractName": "ProofRecorder",
  "sourceName": "contracts/ProofRecorder.sol",
  "abi": [
    {
      "inputs": [
        {
          "internalType": "address",
          "name": "_time26",
          "type": "address"
        },
        {
          "internalType": "address",
          "name": "_treasury",
          "type": "address"
        },
        {
          "internalType": "address",
          "name": "_operator",
          "type": "address"
        },
        {
          "internalType": "address",
          "name": "_initialOwner",
          "type": "address"
        }
      ],
      "stateMutability": "nonpayable",
      "type": "constructor"
    },
    {
      "inputs": [
        {
          "internalType": "address",
          "name": "owner",
          "type": "address"
        }
      ],
      "name": "OwnableInvalidOwner",
      "type": "error"
    },
    {
      "inputs": [
        {
          "internalType": "address",
          "name": "account",
          "type": "address"
        }
      ],
      "name": "OwnableUnauthorizedAccount",
      "type": "error"
    },
    {
      "inputs": [],
      "name": "ReentrancyGuardReentrantCall",
      "type": "error"
    },
    {
      "anonymous": false,
      "inputs": [
        {
          "indexed": true,
          "internalType": "bytes32",
          "name": "merkleRoot",
          "type": "bytes32"
        },
        {
          "indexed": false,
          "internalType": "string",
          "name": "arweaveCid",
          "type": "string"
        }
      ],
      "name": "BatchProofEmitted",
      "type": "event"
    },
    {
      "anonymous": false,
      "inputs": [
        {
          "indexed": true,
          "internalType": "uint256",
          "name": "id",
          "type": "uint256"
        },
        {
          "indexed": true,
          "internalType": "address",
          "name": "owner",
          "type": "address"
        },
        {
          "indexed": false,
          "internalType": "uint256",
          "name": "duration",
          "type": "uint256"
        },
        {
          "indexed": false,
          "internalType": "string",
          "name": "metadataURI",
          "type": "string"
        },
        {
          "indexed": false,
          "internalType": "string",
          "name": "displayName",
          "type": "string"
        },
        {
          "indexed": false,
          "internalType": "string",
          "name": "message",
          "type": "string"
        },
        {
          "indexed": false,
          "internalType": "uint256",
          "name": "nftTokenId",
          "type": "uint256"
        }
      ],
      "name": "ExistenceMinted",
      "type": "event"
    },
    {
      "anonymous": false,
      "inputs": [
        {
          "indexed": true,
          "internalType": "uint256",
          "name": "day",
          "type": "uint256"
        },
        {
          "indexed": false,
          "internalType": "bytes32",
          "name": "root",
          "type": "bytes32"
        }
      ],
      "name": "MerkleRootStored",
      "type": "event"
    },
    {
      "anonymous": false,
      "inputs": [
        {
          "indexed": true,
          "internalType": "address",
          "name": "oldOperator",
          "type": "address"
        },
        {
          "indexed": true,
          "internalType": "address",
          "name": "newOperator",
          "type": "address"
        }
      ],
      "name": "OperatorUpdated",
      "type": "event"
    },
    {
      "anonymous": false,
      "inputs": [
        {
          "indexed": true,
          "internalType": "address",
          "name": "previousOwner",
          "type": "address"
        },
        {
          "indexed": true,
          "internalType": "address",
          "name": "newOwner",
          "type": "address"
        }
      ],
      "name": "OwnershipTransferred",
      "type": "event"
    },
    {
      "anonymous": false,
      "inputs": [
        {
          "indexed": false,
          "internalType": "address",
          "name": "account",
          "type": "address"
        }
      ],
      "name": "Paused",
      "type": "event"
    },
    {
      "anonymous": false,
      "inputs": [
        {
          "indexed": false,
          "internalType": "uint256",
          "name": "baseNative",
          "type": "uint256"
        },
        {
          "indexed": false,
          "internalType": "uint256",
          "name": "rateNative",
          "type": "uint256"
        },
        {
          "indexed": false,
          "internalType": "uint256",
          "name": "baseTime26",
          "type": "uint256"
        },
        {
          "indexed": false,
          "internalType": "uint256",
          "name": "rateTime26",
          "type": "uint256"
        }
      ],
      "name": "PricingUpdated",
      "type": "event"
    },
    {
      "anonymous": false,
      "inputs": [
        {
          "indexed": true,
          "internalType": "address",
          "name": "user",
          "type": "address"
        },
        {
          "indexed": true,
          "internalType": "uint256",
          "name": "day",
          "type": "uint256"
        },
        {
          "indexed": false,
          "internalType": "uint256",
          "name": "amount",
          "type": "uint256"
        }
      ],
      "name": "RewardsClaimed",
      "type": "event"
    },
    {
      "anonymous": false,
      "inputs": [
        {
          "indexed": false,
          "internalType": "address",
          "name": "account",
          "type": "address"
        }
      ],
      "name": "Unpaused",
      "type": "event"
    },
    {
      "inputs": [],
      "name": "MIN_DURATION",
      "outputs": [
        {
          "internalType": "uint256",
          "name": "",
          "type": "uint256"
        }
      ],
      "stateMutability": "view",
      "type": "function"
    },
    {
      "inputs": [],
      "name": "baseFeeNative",
      "outputs": [
        {
          "internalType": "uint256",
          "name": "",
          "type": "uint256"
        }
      ],
      "stateMutability": "view",
      "type": "function"
    },
    {
      "inputs": [],
      "name": "baseFeeTime26",
      "outputs": [
        {
          "internalType": "uint256",
          "name": "",
          "type": "uint256"
        }
      ],
      "stateMutability": "view",
      "type": "function"
    },
    {
      "inputs": [
        {
          "internalType": "uint256",
          "name": "duration",
          "type": "uint256"
        }
      ],
      "name": "calculateCostNative",
      "outputs": [
        {
          "internalType": "uint256",
          "name": "",
          "type": "uint256"
        }
      ],
      "stateMutability": "view",
      "type": "function"
    },
    {
      "inputs": [
        {
          "internalType": "uint256",
          "name": "duration",
          "type": "uint256"
        }
      ],
      "name": "calculateCostTime26",
      "outputs": [
        {
          "internalType": "uint256",
          "name": "",
          "type": "uint256"
        }
      ],
      "stateMutability": "view",
      "type": "function"
    },
    {
      "inputs": [
        {
          "internalType": "address",
          "name": "",
          "type": "address"
        },
        {
          "internalType": "uint256",
          "name": "",
          "type": "uint256"
        }
      ],
      "name": "claimedAmounts",
      "outputs": [
        {
          "internalType": "uint256",
          "name": "",
          "type": "uint256"
        }
      ],
      "stateMutability": "view",
      "type": "function"
    },
    {
      "inputs": [
        {
          "internalType": "uint256",
          "name": "",
          "type": "uint256"
        }
      ],
      "name": "dailyMerkleRoots",
      "outputs": [
        {
          "internalType": "bytes32",
          "name": "",
          "type": "bytes32"
        }
      ],
      "stateMutability": "view",
      "type": "function"
    },
    {
      "inputs": [],
      "name": "deflationMode",
      "outputs": [
        {
          "internalType": "bool",
          "name": "",
          "type": "bool"
        }
      ],
      "stateMutability": "view",
      "type": "function"
    },
    {
      "inputs": [
        {
          "internalType": "bytes32",
          "name": "merkleRoot",
          "type": "bytes32"
        },
        {
          "internalType": "string",
          "name": "arweaveCid",
          "type": "string"
        }
      ],
      "name": "emitBatchProof",
      "outputs": [],
      "stateMutability": "nonpayable",
      "type": "function"
    },
    {
      "inputs": [
        {
          "internalType": "uint256",
          "name": "",
          "type": "uint256"
        }
      ],
      "name": "existences",
      "outputs": [
        {
          "internalType": "address",
          "name": "owner",
          "type": "address"
        },
        {
          "internalType": "uint256",
          "name": "duration",
          "type": "uint256"
        },
        {
          "internalType": "uint256",
          "name": "timestamp",
          "type": "uint256"
        },
        {
          "internalType": "string",
          "name": "metadataURI",
          "type": "string"
        },
        {
          "internalType": "string",
          "name": "displayName",
          "type": "string"
        },
        {
          "internalType": "string",
          "name": "message",
          "type": "string"
        },
        {
          "internalType": "uint256",
          "name": "nftTokenId",
          "type": "uint256"
        }
      ],
      "stateMutability": "view",
      "type": "function"
    },
    {
      "inputs": [],
      "name": "freeAllowance",
      "outputs": [
        {
          "internalType": "uint256",
          "name": "",
          "type": "uint256"
        }
      ],
      "stateMutability": "view",
      "type": "function"
    },
    {
      "inputs": [
        {
          "internalType": "uint256",
          "name": "duration",
          "type": "uint256"
        },
        {
          "internalType": "string",
          "name": "metadataURI",
          "type": "string"
        },
        {
          "internalType": "string",
          "name": "displayName",
          "type": "string"
        },
        {
          "internalType": "string",
          "name": "message",
          "type": "string"
        }
      ],
      "name": "mintEternalNative",
      "outputs": [],
      "stateMutability": "payable",
      "type": "function"
    },
    {
      "inputs": [
        {
          "internalType": "uint256",
          "name": "duration",
          "type": "uint256"
        },
        {
          "internalType": "string",
          "name": "metadataURI",
          "type": "string"
        },
        {
          "internalType": "string",
          "name": "displayName",
          "type": "string"
        },
        {
          "internalType": "string",
          "name": "message",
          "type": "string"
        }
      ],
      "name": "mintEternalTime26",
      "outputs": [],
      "stateMutability": "nonpayable",
      "type": "function"
    },
    {
      "inputs": [
        {
          "internalType": "uint256",
          "name": "duration",
          "type": "uint256"
        },
        {
          "internalType": "string",
          "name": "metadataURI",
          "type": "string"
        },
        {
          "internalType": "string",
          "name": "displayName",
          "type": "string"
        },
        {
          "internalType": "string",
          "name": "message",
          "type": "string"
        }
      ],
      "name": "mintInstantNative",
      "outputs": [],
      "stateMutability": "payable",
      "type": "function"
    },
    {
      "inputs": [
        {
          "internalType": "uint256",
          "name": "duration",
          "type": "uint256"
        },
        {
          "internalType": "string",
          "name": "metadataURI",
          "type": "string"
        },
        {
          "internalType": "string",
          "name": "displayName",
          "type": "string"
        },
        {
          "internalType": "string",
          "name": "message",
          "type": "string"
        }
      ],
      "name": "mintInstantTime26",
      "outputs": [],
      "stateMutability": "nonpayable",
      "type": "function"
    },
    {
      "inputs": [],
      "name": "nextExistenceId",
      "outputs": [
        {
          "internalType": "uint256",
          "name": "",
          "type": "uint256"
        }
      ],
      "stateMutability": "view",
      "type": "function"
    },
    {
      "inputs": [],
      "name": "operator",
      "outputs": [
        {
          "internalType": "address",
          "name": "",
          "type": "address"
        }
      ],
      "stateMutability": "view",
      "type": "function"
    },
    {
      "inputs": [],
      "name": "owner",
      "outputs": [
        {
          "internalType": "address",
          "name": "",
          "type": "address"
        }
      ],
      "stateMutability": "view",
      "type": "function"
    },
    {
      "inputs": [],
      "name": "pause",
      "outputs": [],
      "stateMutability": "nonpayable",
      "type": "function"
    },
    {
      "inputs": [],
      "name": "paused",
      "outputs": [
        {
          "internalType": "bool",
          "name": "",
          "type": "bool"
        }
      ],
      "stateMutability": "view",
      "type": "function"
    },
    {
      "inputs": [],
      "name": "pricePerSecondNative",
      "outputs": [
        {
          "internalType": "uint256",
          "name": "",
          "type": "uint256"
        }
      ],
      "stateMutability": "view",
      "type": "function"
    },
    {
      "inputs": [],
      "name": "pricePerSecondTime26",
      "outputs": [
        {
          "internalType": "uint256",
          "name": "",
          "type": "uint256"
        }
      ],
      "stateMutability": "view",
      "type": "function"
    },
    {
      "inputs": [],
      "name": "renounceOwnership",
      "outputs": [],
      "stateMutability": "nonpayable",
      "type": "function"
    },
    {
      "inputs": [
        {
          "internalType": "bool",
          "name": "_mode",
          "type": "bool"
        }
      ],
      "name": "setDeflationMode",
      "outputs": [],
      "stateMutability": "nonpayable",
      "type": "function"
    },
    {
      "inputs": [
        {
          "internalType": "address",
          "name": "_operator",
          "type": "address"
        }
      ],
      "name": "setOperator",
      "outputs": [],
      "stateMutability": "nonpayable",
      "type": "function"
    },
    {
      "inputs": [
        {
          "internalType": "uint256",
          "name": "_baseNative",
          "type": "uint256"
        },
        {
          "internalType": "uint256",
          "name": "_rateNative",
          "type": "uint256"
        },
        {
          "internalType": "uint256",
          "name": "_baseTime26",
          "type": "uint256"
        },
        {
          "internalType": "uint256",
          "name": "_rateTime26",
          "type": "uint256"
        },
        {
          "internalType": "uint256",
          "name": "_allowance",
          "type": "uint256"
        }
      ],
      "name": "setPricing",
      "outputs": [],
      "stateMutability": "nonpayable",
      "type": "function"
    },
    {
      "inputs": [
        {
          "internalType": "address",
          "name": "_trailNFT",
          "type": "address"
        }
      ],
      "name": "setTrailNFT",
      "outputs": [],
      "stateMutability": "nonpayable",
      "type": "function"
    },
    {
      "inputs": [
        {
          "internalType": "address",
          "name": "_treasury",
          "type": "address"
        }
      ],
      "name": "setTreasury",
      "outputs": [],
      "stateMutability": "nonpayable",
      "type": "function"
    },
    {
      "inputs": [
        {
          "internalType": "uint256",
          "name": "day",
          "type": "uint256"
        },
        {
          "internalType": "bytes32",
          "name": "root",
          "type": "bytes32"
        }
      ],
      "name": "storeMerkleRoot",
      "outputs": [],
      "stateMutability": "nonpayable",
      "type": "function"
    },
    {
      "inputs": [],
      "name": "time26Token",
      "outputs": [
        {
          "internalType": "contract Time26",
          "name": "",
          "type": "address"
        }
      ],
      "stateMutability": "view",
      "type": "function"
    },
    {
      "inputs": [],
      "name": "trailNFT",
      "outputs": [
        {
          "internalType": "contract ITrailNFT",
          "name": "",
          "type": "address"
        }
      ],
      "stateMutability": "view",
      "type": "function"
    },
    {
      "inputs": [
        {
          "internalType": "address",
          "name": "newOwner",
          "type": "address"
        }
      ],
      "name": "transferOwnership",
      "outputs": [],
      "stateMutability": "nonpayable",
      "type": "function"
    },
    {
      "inputs": [],
      "name": "treasury",
      "outputs": [
        {
          "internalType": "address",
          "name": "",
          "type": "address"
        }
      ],
      "stateMutability": "view",
      "type": "function"
    },
    {
      "inputs": [],
      "name": "unpause",
      "outputs": [],
      "stateMutability": "nonpayable",
      "type": "function"
    }
  ],
  "bytecode": "0x6080604052602d600a556001600b60006101000a81548160ff02191690831515021790555034801561003057600080fd5b506040516139553803806139558339818101604052810190610052919061041c565b80600073ffffffffffffffffffffffffffffffffffffffff168173ffffffffffffffffffffffffffffffffffffffff16036100c55760006040517f1e4fbdf70000000000000000000000000000000000000000000000000000000081526004016100bc9190610492565b60405180910390fd5b6100d4816102f560201b60201c565b5060018081905550600073ffffffffffffffffffffffffffffffffffffffff168473ffffffffffffffffffffffffffffffffffffffff160361014b576040517f08c379a000000000000000000000000000000000000000000000000000000000815260040161014290610530565b60405180910390fd5b600073ffffffffffffffffffffffffffffffffffffffff168373ffffffffffffffffffffffffffffffffffffffff16036101ba576040517f08c379a00000000000000000000000000000000000000000000000000000000081526004016101b1906105c2565b60405180910390fd5b600073ffffffffffffffffffffffffffffffffffffffff168273ffffffffffffffffffffffffffffffffffffffff1603610229576040517f08c379a000000000000000000000000000000000000000000000000000000000815260040161022090610654565b60405180910390fd5b83600260006101000a81548173ffffffffffffffffffffffffffffffffffffffff021916908373ffffffffffffffffffffffffffffffffffffffff16021790555082600460006101000a81548173ffffffffffffffffffffffffffffffffffffffff021916908373ffffffffffffffffffffffffffffffffffffffff16021790555081600560006101000a81548173ffffffffffffffffffffffffffffffffffffffff021916908373ffffffffffffffffffffffffffffffffffffffff16021790555050505050610674565b60008060009054906101000a900473ffffffffffffffffffffffffffffffffffffffff169050816000806101000a81548173ffffffffffffffffffffffffffffffffffffffff021916908373ffffffffffffffffffffffffffffffffffffffff1602179055508173ffffffffffffffffffffffffffffffffffffffff168173ffffffffffffffffffffffffffffffffffffffff167f8be0079c531659141344cd1fd0a4f28419497f9722a3daafe3b4186f6b6457e060405160405180910390a35050565b600080fd5b600073ffffffffffffffffffffffffffffffffffffffff82169050919050565b60006103e9826103be565b9050919050565b6103f9816103de565b811461040457600080fd5b50565b600081519050610416816103f0565b92915050565b60008060008060808587031215610436576104356103b9565b5b600061044487828801610407565b945050602061045587828801610407565b935050604061046687828801610407565b925050606061047787828801610407565b91505092959194509250565b61048c816103de565b82525050565b60006020820190506104a76000830184610483565b92915050565b600082825260208201905092915050565b7f50726f6f665265636f726465723a20696e76616c69642074696d65323620616460008201527f6472657373000000000000000000000000000000000000000000000000000000602082015250565b600061051a6025836104ad565b9150610525826104be565b604082019050919050565b600060208201905081810360008301526105498161050d565b9050919050565b7f50726f6f665265636f726465723a20696e76616c69642074726561737572792060008201527f6164647265737300000000000000000000000000000000000000000000000000602082015250565b60006105ac6027836104ad565b91506105b782610550565b604082019050919050565b600060208201905081810360008301526105db8161059f565b9050919050565b7f50726f6f665265636f726465723a20696e76616c6964206f70657261746f722060008201527f6164647265737300000000000000000000000000000000000000000000000000602082015250565b600061063e6027836104ad565b9150610649826105e2565b604082019050919050565b6000602082019050818103600083015261066d81610631565b9050919050565b6132d2806106836000396000f3fe6080604052600436106101f95760003560e01c80638da5cb5b1161010d578063d7c9bde2116100a0578063dfd8d63c1161006f578063dfd8d63c146106e4578063e9eb6a7e1461070d578063f0f4426014610738578063f2d83fdd14610761578063f2fde38b1461077d576101f9565b8063d7c9bde21461063c578063d96a82d314610667578063da537a3214610690578063dfb41547146106bb576101f9565b8063b5e61fca116100dc578063b5e61fca14610580578063b6a6d177146105a9578063b6edd112146105d4578063bcb8d00b14610611576101f9565b80638da5cb5b146104be578063a9fa7d55146104e9578063b0b2992c14610514578063b3ab15fb14610557576101f9565b80635bedfd2e116101905780637022da671161015f5780637022da6714610411578063715018a61461043a57806371f7552d14610451578063781c728a1461047c5780638456cb59146104a7576101f9565b80635bedfd2e146103415780635c975abb1461037e57806361d027b3146103a95780636d306415146103d4576101f9565b806339cf9197116101cc57806339cf9197146102a95780633f4ba83a146102d457806349530aaf146102eb578063570ca73514610316576101f9565b80632204b9e3146101fe5780632cf32f1d1461023b5780632e5bc0751461026457806338170c831461028d575b600080fd5b34801561020a57600080fd5b50610225600480360381019061022091906120fa565b6107a6565b6040516102329190612136565b60405180910390f35b34801561024757600080fd5b50610262600480360381019061025d91906122cd565b6107ed565b005b34801561027057600080fd5b5061028b60048036038101906102869190612329565b610909565b005b6102a760048036038101906102a291906123a4565b610978565b005b3480156102b557600080fd5b506102be610b45565b6040516102cb9190612136565b60405180910390f35b3480156102e057600080fd5b506102e9610b4b565b005b3480156102f757600080fd5b50610300610ba7565b60405161030d9190612136565b60405180910390f35b34801561032257600080fd5b5061032b610bad565b60405161033891906124a0565b60405180910390f35b34801561034d57600080fd5b50610368600480360381019061036391906120fa565b610bd3565b60405161037591906124ca565b60405180910390f35b34801561038a57600080fd5b50610393610beb565b6040516103a09190612500565b60405180910390f35b3480156103b557600080fd5b506103be610bfe565b6040516103cb91906124a0565b60405180910390f35b3480156103e057600080fd5b506103fb60048036038101906103f69190612547565b610c24565b6040516104089190612136565b60405180910390f35b34801561041d57600080fd5b5061043860048036038101906104339190612587565b610c49565b005b34801561044657600080fd5b5061044f610d04565b005b34801561045d57600080fd5b50610466610d18565b6040516104739190612613565b60405180910390f35b34801561048857600080fd5b50610491610d3e565b60405161049e9190612136565b60405180910390f35b3480156104b357600080fd5b506104bc610d44565b005b3480156104ca57600080fd5b506104d3610da0565b6040516104e091906124a0565b60405180910390f35b3480156104f557600080fd5b506104fe610dc9565b60405161050b919061264f565b60405180910390f35b34801561052057600080fd5b5061053b600480360381019061053691906120fa565b610def565b60405161054e97969594939291906126e9565b60405180910390f35b34801561056357600080fd5b5061057e60048036038101906105799190612587565b610fe9565b005b34801561058c57600080fd5b506105a760048036038101906105a29190612799565b611120565b005b3480156105b557600080fd5b506105be611145565b6040516105cb9190612136565b60405180910390f35b3480156105e057600080fd5b506105fb60048036038101906105f691906120fa565b61114a565b6040516106089190612136565b60405180910390f35b34801561061d57600080fd5b50610626611191565b6040516106339190612136565b60405180910390f35b34801561064857600080fd5b50610651611197565b60405161065e9190612136565b60405180910390f35b34801561067357600080fd5b5061068e600480360381019061068991906123a4565b61119d565b005b34801561069c57600080fd5b506106a56114b9565b6040516106b29190612500565b60405180910390f35b3480156106c757600080fd5b506106e260048036038101906106dd91906123a4565b6114cc565b005b3480156106f057600080fd5b5061070b600480360381019061070691906127c6565b6117e8565b005b34801561071957600080fd5b50610722611974565b60405161072f9190612136565b60405180910390f35b34801561074457600080fd5b5061075f600480360381019061075a9190612587565b61197a565b005b61077b600480360381019061077691906123a4565b611a35565b005b34801561078957600080fd5b506107a4600480360381019061079f9190612587565b611c0b565b005b600080600a5483116107b95760006107c8565b600a54836107c79190612835565b5b9050600754816107d89190612869565b6006546107e591906128ab565b915050919050565b600560009054906101000a900473ffffffffffffffffffffffffffffffffffffffff1673ffffffffffffffffffffffffffffffffffffffff163373ffffffffffffffffffffffffffffffffffffffff161461087d576040517f08c379a000000000000000000000000000000000000000000000000000000000815260040161087490612951565b60405180910390fd5b600b60019054906101000a900460ff16156108cd576040517f08c379a00000000000000000000000000000000000000000000000000000000081526004016108c4906129bd565b60405180910390fd5b817f7fcc9ee9a0467126e17eb6d908776146a3b6621bcd61e88fe74b871f143d6176826040516108fd91906129dd565b60405180910390a25050565b610911611c91565b8460068190555083600781905550826008819055508160098190555080600a819055507f10391582be13a09a314521d7735c10a4c30864aa5ae7191a62b6d443d723fd388585858560405161096994939291906129ff565b60405180910390a15050505050565b600b60019054906101000a900460ff16156109c8576040517f08c379a00000000000000000000000000000000000000000000000000000000081526004016109bf906129bd565b60405180910390fd5b600a841015610a0c576040517f08c379a0000000000000000000000000000000000000000000000000000000008152600401610a0390612ab6565b60405180910390fd5b6000610a17856107a6565b905080341015610a5c576040517f08c379a0000000000000000000000000000000000000000000000000000000008152600401610a5390612b48565b60405180910390fd5b60008134610a6a9190612835565b9050610a793387878787611d18565b6000821115610aec57600460009054906101000a900473ffffffffffffffffffffffffffffffffffffffff1673ffffffffffffffffffffffffffffffffffffffff166108fc839081150290604051600060405180830381858888f19350505050158015610aea573d6000803e3d6000fd5b505b6000811115610b3d573373ffffffffffffffffffffffffffffffffffffffff166108fc829081150290604051600060405180830381858888f19350505050158015610b3b573d6000803e3d6000fd5b505b505050505050565b60075481565b610b53611c91565b6000600b60016101000a81548160ff0219169083151502179055507f5db9ee0a495bf2e6ff9c91a7834c1ba4fdd244a5e8aa4e537bd38aeae4b073aa33604051610b9d91906124a0565b60405180910390a1565b60085481565b600560009054906101000a900473ffffffffffffffffffffffffffffffffffffffff1681565b600c6020528060005260406000206000915090505481565b600b60019054906101000a900460ff1681565b600460009054906101000a900473ffffffffffffffffffffffffffffffffffffffff1681565b600d602052816000526040600020602052806000526040600020600091509150505481565b610c51611c91565b600073ffffffffffffffffffffffffffffffffffffffff168173ffffffffffffffffffffffffffffffffffffffff1603610cc0576040517f08c379a0000000000000000000000000000000000000000000000000000000008152600401610cb790612bb4565b60405180910390fd5b80600360006101000a81548173ffffffffffffffffffffffffffffffffffffffff021916908373ffffffffffffffffffffffffffffffffffffffff16021790555050565b610d0c611c91565b610d166000611f95565b565b600260009054906101000a900473ffffffffffffffffffffffffffffffffffffffff1681565b600e5481565b610d4c611c91565b6001600b60016101000a81548160ff0219169083151502179055507f62e78cea01bee320cd4e420270b5ea74000d11b0c9f74754ebdbfc544b05a25833604051610d9691906124a0565b60405180910390a1565b60008060009054906101000a900473ffffffffffffffffffffffffffffffffffffffff16905090565b600360009054906101000a900473ffffffffffffffffffffffffffffffffffffffff1681565b600f6020528060005260406000206000915090508060000160009054906101000a900473ffffffffffffffffffffffffffffffffffffffff1690806001015490806002015490806003018054610e4490612c03565b80601f0160208091040260200160405190810160405280929190818152602001828054610e7090612c03565b8015610ebd5780601f10610e9257610100808354040283529160200191610ebd565b820191906000526020600020905b815481529060010190602001808311610ea057829003601f168201915b505050505090806004018054610ed290612c03565b80601f0160208091040260200160405190810160405280929190818152602001828054610efe90612c03565b8015610f4b5780601f10610f2057610100808354040283529160200191610f4b565b820191906000526020600020905b815481529060010190602001808311610f2e57829003601f168201915b505050505090806005018054610f6090612c03565b80601f0160208091040260200160405190810160405280929190818152602001828054610f8c90612c03565b8015610fd95780601f10610fae57610100808354040283529160200191610fd9565b820191906000526020600020905b815481529060010190602001808311610fbc57829003601f168201915b5050505050908060060154905087565b610ff1611c91565b600073ffffffffffffffffffffffffffffffffffffffff168173ffffffffffffffffffffffffffffffffffffffff1603611060576040517f08c379a000000000000000000000000000000000000000000000000000000000815260040161105790612ca6565b60405180910390fd5b8073ffffffffffffffffffffffffffffffffffffffff16600560009054906101000a900473ffffffffffffffffffffffffffffffffffffffff1673ffffffffffffffffffffffffffffffffffffffff167ffbe5b6cbafb274f445d7fed869dc77a838d8243a22c460de156560e8857cad0360405160405180910390a380600560006101000a81548173ffffffffffffffffffffffffffffffffffffffff021916908373ffffffffffffffffffffffffffffffffffffffff16021790555050565b611128611c91565b80600b60006101000a81548160ff02191690831515021790555050565b600a81565b600080600a54831161115d57600061116c565b600a548361116b9190612835565b5b90506009548161117c9190612869565b60085461118991906128ab565b915050919050565b60095481565b60065481565b600b60019054906101000a900460ff16156111ed576040517f08c379a00000000000000000000000000000000000000000000000000000000081526004016111e4906129bd565b60405180910390fd5b6111f5612059565b600a841015611239576040517f08c379a000000000000000000000000000000000000000000000000000000000815260040161123090612ab6565b60405180910390fd5b60006112448561114a565b905080600260009054906101000a900473ffffffffffffffffffffffffffffffffffffffff1673ffffffffffffffffffffffffffffffffffffffff166370a08231336040518263ffffffff1660e01b81526004016112a291906124a0565b602060405180830381865afa1580156112bf573d6000803e3d6000fd5b505050506040513d601f19601f820116820180604052508101906112e39190612cdb565b1015611324576040517f08c379a000000000000000000000000000000000000000000000000000000000815260040161131b90612d7a565b60405180910390fd5b600081111561149d57600b60009054906101000a900460ff16156113d657600260009054906101000a900473ffffffffffffffffffffffffffffffffffffffff1673ffffffffffffffffffffffffffffffffffffffff166379cc679033836040518363ffffffff1660e01b815260040161139f929190612d9a565b600060405180830381600087803b1580156113b957600080fd5b505af11580156113cd573d6000803e3d6000fd5b5050505061149c565b600260009054906101000a900473ffffffffffffffffffffffffffffffffffffffff1673ffffffffffffffffffffffffffffffffffffffff166323b872dd33600460009054906101000a900473ffffffffffffffffffffffffffffffffffffffff16846040518463ffffffff1660e01b815260040161145793929190612dc3565b6020604051808303816000875af1158015611476573d6000803e3d6000fd5b505050506040513d601f19601f8201168201806040525081019061149a9190612e0f565b505b5b6114aa3386868686611d18565b506114b361209f565b50505050565b600b60009054906101000a900460ff1681565b600b60019054906101000a900460ff161561151c576040517f08c379a0000000000000000000000000000000000000000000000000000000008152600401611513906129bd565b60405180910390fd5b611524612059565b600a841015611568576040517f08c379a000000000000000000000000000000000000000000000000000000000815260040161155f90612ab6565b60405180910390fd5b60006115738561114a565b905080600260009054906101000a900473ffffffffffffffffffffffffffffffffffffffff1673ffffffffffffffffffffffffffffffffffffffff166370a08231336040518263ffffffff1660e01b81526004016115d191906124a0565b602060405180830381865afa1580156115ee573d6000803e3d6000fd5b505050506040513d601f19601f820116820180604052508101906116129190612cdb565b1015611653576040517f08c379a000000000000000000000000000000000000000000000000000000000815260040161164a90612d7a565b60405180910390fd5b60008111156117cc57600b60009054906101000a900460ff161561170557600260009054906101000a900473ffffffffffffffffffffffffffffffffffffffff1673ffffffffffffffffffffffffffffffffffffffff166379cc679033836040518363ffffffff1660e01b81526004016116ce929190612d9a565b600060405180830381600087803b1580156116e857600080fd5b505af11580156116fc573d6000803e3d6000fd5b505050506117cb565b600260009054906101000a900473ffffffffffffffffffffffffffffffffffffffff1673ffffffffffffffffffffffffffffffffffffffff166323b872dd33600460009054906101000a900473ffffffffffffffffffffffffffffffffffffffff16846040518463ffffffff1660e01b815260040161178693929190612dc3565b6020604051808303816000875af11580156117a5573d6000803e3d6000fd5b505050506040513d601f19601f820116820180604052508101906117c99190612e0f565b505b5b6117d93386868686611d18565b506117e261209f565b50505050565b600560009054906101000a900473ffffffffffffffffffffffffffffffffffffffff1673ffffffffffffffffffffffffffffffffffffffff163373ffffffffffffffffffffffffffffffffffffffff1614611878576040517f08c379a000000000000000000000000000000000000000000000000000000000815260040161186f90612951565b60405180910390fd5b600b60019054906101000a900460ff16156118c8576040517f08c379a00000000000000000000000000000000000000000000000000000000081526004016118bf906129bd565b60405180910390fd5b6000801b600c60008481526020019081526020016000205414611920576040517f08c379a000000000000000000000000000000000000000000000000000000000815260040161191790612e88565b60405180910390fd5b80600c600084815260200190815260200160002081905550817ff19120db664ce0e22982ceb95836c6e92bbedca9b3ad07a9d16d1a2b0af4406b8260405161196891906124ca565b60405180910390a25050565b600a5481565b611982611c91565b600073ffffffffffffffffffffffffffffffffffffffff168173ffffffffffffffffffffffffffffffffffffffff16036119f1576040517f08c379a00000000000000000000000000000000000000000000000000000000081526004016119e890612f1a565b60405180910390fd5b80600460006101000a81548173ffffffffffffffffffffffffffffffffffffffff021916908373ffffffffffffffffffffffffffffffffffffffff16021790555050565b600b60019054906101000a900460ff1615611a85576040517f08c379a0000000000000000000000000000000000000000000000000000000008152600401611a7c906129bd565b60405180910390fd5b611a8d612059565b600a841015611ad1576040517f08c379a0000000000000000000000000000000000000000000000000000000008152600401611ac890612ab6565b60405180910390fd5b6000611adc856107a6565b905080341015611b21576040517f08c379a0000000000000000000000000000000000000000000000000000000008152600401611b1890612b48565b60405180910390fd5b611b2e3386868686611d18565b6000811115611ba157600460009054906101000a900473ffffffffffffffffffffffffffffffffffffffff1673ffffffffffffffffffffffffffffffffffffffff166108fc829081150290604051600060405180830381858888f19350505050158015611b9f573d6000803e3d6000fd5b505b80341115611bfc573373ffffffffffffffffffffffffffffffffffffffff166108fc8234611bcf9190612835565b9081150290604051600060405180830381858888f19350505050158015611bfa573d6000803e3d6000fd5b505b50611c0561209f565b50505050565b611c13611c91565b600073ffffffffffffffffffffffffffffffffffffffff168173ffffffffffffffffffffffffffffffffffffffff1603611c855760006040517f1e4fbdf7000000000000000000000000000000000000000000000000000000008152600401611c7c91906124a0565b60405180910390fd5b611c8e81611f95565b50565b611c996120a8565b73ffffffffffffffffffffffffffffffffffffffff16611cb7610da0565b73ffffffffffffffffffffffffffffffffffffffff1614611d1657611cda6120a8565b6040517f118cdaa7000000000000000000000000000000000000000000000000000000008152600401611d0d91906124a0565b60405180910390fd5b565b6000600e6000815480929190611d2d90612f3a565b91905055905060008073ffffffffffffffffffffffffffffffffffffffff16600360009054906101000a900473ffffffffffffffffffffffffffffffffffffffff1673ffffffffffffffffffffffffffffffffffffffff1614611e2f57600360009054906101000a900473ffffffffffffffffffffffffffffffffffffffff1673ffffffffffffffffffffffffffffffffffffffff1663ba7aef438887896040518463ffffffff1660e01b8152600401611de993929190612f82565b6020604051808303816000875af1158015611e08573d6000803e3d6000fd5b505050506040513d601f19601f82011682018060405250810190611e2c9190612cdb565b90505b6040518060e001604052808873ffffffffffffffffffffffffffffffffffffffff16815260200187815260200142815260200186815260200185815260200184815260200182815250600f600084815260200190815260200160002060008201518160000160006101000a81548173ffffffffffffffffffffffffffffffffffffffff021916908373ffffffffffffffffffffffffffffffffffffffff16021790555060208201518160010155604082015181600201556060820151816003019081611efb9190613162565b506080820151816004019081611f119190613162565b5060a0820151816005019081611f279190613162565b5060c082015181600601559050508673ffffffffffffffffffffffffffffffffffffffff16827f38d4f3146853404d1ac3a65304779ee44f3cd05942866fc0c2a53b97430f045e8888888887604051611f84959493929190613234565b60405180910390a350505050505050565b60008060009054906101000a900473ffffffffffffffffffffffffffffffffffffffff169050816000806101000a81548173ffffffffffffffffffffffffffffffffffffffff021916908373ffffffffffffffffffffffffffffffffffffffff1602179055508173ffffffffffffffffffffffffffffffffffffffff168173ffffffffffffffffffffffffffffffffffffffff167f8be0079c531659141344cd1fd0a4f28419497f9722a3daafe3b4186f6b6457e060405160405180910390a35050565b600260015403612095576040517f3ee5aeb500000000000000000000000000000000000000000000000000000000815260040160405180910390fd5b6002600181905550565b60018081905550565b600033905090565b6000604051905090565b600080fd5b600080fd5b6000819050919050565b6120d7816120c4565b81146120e257600080fd5b50565b6000813590506120f4816120ce565b92915050565b6000602082840312156121105761210f6120ba565b5b600061211e848285016120e5565b91505092915050565b612130816120c4565b82525050565b600060208201905061214b6000830184612127565b92915050565b6000819050919050565b61216481612151565b811461216f57600080fd5b50565b6000813590506121818161215b565b92915050565b600080fd5b600080fd5b6000601f19601f8301169050919050565b7f4e487b7100000000000000000000000000000000000000000000000000000000600052604160045260246000fd5b6121da82612191565b810181811067ffffffffffffffff821117156121f9576121f86121a2565b5b80604052505050565b600061220c6120b0565b905061221882826121d1565b919050565b600067ffffffffffffffff821115612238576122376121a2565b5b61224182612191565b9050602081019050919050565b82818337600083830152505050565b600061227061226b8461221d565b612202565b90508281526020810184848401111561228c5761228b61218c565b5b61229784828561224e565b509392505050565b600082601f8301126122b4576122b3612187565b5b81356122c484826020860161225d565b91505092915050565b600080604083850312156122e4576122e36120ba565b5b60006122f285828601612172565b925050602083013567ffffffffffffffff811115612313576123126120bf565b5b61231f8582860161229f565b9150509250929050565b600080600080600060a08688031215612345576123446120ba565b5b6000612353888289016120e5565b9550506020612364888289016120e5565b9450506040612375888289016120e5565b9350506060612386888289016120e5565b9250506080612397888289016120e5565b9150509295509295909350565b600080600080608085870312156123be576123bd6120ba565b5b60006123cc878288016120e5565b945050602085013567ffffffffffffffff8111156123ed576123ec6120bf565b5b6123f98782880161229f565b935050604085013567ffffffffffffffff81111561241a576124196120bf565b5b6124268782880161229f565b925050606085013567ffffffffffffffff811115612447576124466120bf565b5b6124538782880161229f565b91505092959194509250565b600073ffffffffffffffffffffffffffffffffffffffff82169050919050565b600061248a8261245f565b9050919050565b61249a8161247f565b82525050565b60006020820190506124b56000830184612491565b92915050565b6124c481612151565b82525050565b60006020820190506124df60008301846124bb565b92915050565b60008115159050919050565b6124fa816124e5565b82525050565b600060208201905061251560008301846124f1565b92915050565b6125248161247f565b811461252f57600080fd5b50565b6000813590506125418161251b565b92915050565b6000806040838503121561255e5761255d6120ba565b5b600061256c85828601612532565b925050602061257d858286016120e5565b9150509250929050565b60006020828403121561259d5761259c6120ba565b5b60006125ab84828501612532565b91505092915050565b6000819050919050565b60006125d96125d46125cf8461245f565b6125b4565b61245f565b9050919050565b60006125eb826125be565b9050919050565b60006125fd826125e0565b9050919050565b61260d816125f2565b82525050565b60006020820190506126286000830184612604565b92915050565b6000612639826125e0565b9050919050565b6126498161262e565b82525050565b60006020820190506126646000830184612640565b92915050565b600081519050919050565b600082825260208201905092915050565b60005b838110156126a4578082015181840152602081019050612689565b60008484015250505050565b60006126bb8261266a565b6126c58185612675565b93506126d5818560208601612686565b6126de81612191565b840191505092915050565b600060e0820190506126fe600083018a612491565b61270b6020830189612127565b6127186040830188612127565b818103606083015261272a81876126b0565b9050818103608083015261273e81866126b0565b905081810360a083015261275281856126b0565b905061276160c0830184612127565b98975050505050505050565b612776816124e5565b811461278157600080fd5b50565b6000813590506127938161276d565b92915050565b6000602082840312156127af576127ae6120ba565b5b60006127bd84828501612784565b91505092915050565b600080604083850312156127dd576127dc6120ba565b5b60006127eb858286016120e5565b92505060206127fc85828601612172565b9150509250929050565b7f4e487b7100000000000000000000000000000000000000000000000000000000600052601160045260246000fd5b6000612840826120c4565b915061284b836120c4565b925082820390508181111561286357612862612806565b5b92915050565b6000612874826120c4565b915061287f836120c4565b925082820261288d816120c4565b915082820484148315176128a4576128a3612806565b5b5092915050565b60006128b6826120c4565b91506128c1836120c4565b92508282019050808211156128d9576128d8612806565b5b92915050565b7f50726f6f665265636f726465723a2063616c6c6572206973206e6f74206f706560008201527f7261746f72000000000000000000000000000000000000000000000000000000602082015250565b600061293b602583612675565b9150612946826128df565b604082019050919050565b6000602082019050818103600083015261296a8161292e565b9050919050565b7f50726f6f665265636f726465723a207061757365640000000000000000000000600082015250565b60006129a7601583612675565b91506129b282612971565b602082019050919050565b600060208201905081810360008301526129d68161299a565b9050919050565b600060208201905081810360008301526129f781846126b0565b905092915050565b6000608082019050612a146000830187612127565b612a216020830186612127565b612a2e6040830185612127565b612a3b6060830184612127565b95945050505050565b7f50726f6f665265636f726465723a206475726174696f6e20746f6f2073686f7260008201527f7400000000000000000000000000000000000000000000000000000000000000602082015250565b6000612aa0602183612675565b9150612aab82612a44565b604082019050919050565b60006020820190508181036000830152612acf81612a93565b9050919050565b7f50726f6f665265636f726465723a20696e73756666696369656e74207061796d60008201527f656e740000000000000000000000000000000000000000000000000000000000602082015250565b6000612b32602383612675565b9150612b3d82612ad6565b604082019050919050565b60006020820190508181036000830152612b6181612b25565b9050919050565b7f50726f6f665265636f726465723a20696e76616c696420616464726573730000600082015250565b6000612b9e601e83612675565b9150612ba982612b68565b602082019050919050565b60006020820190508181036000830152612bcd81612b91565b9050919050565b7f4e487b7100000000000000000000000000000000000000000000000000000000600052602260045260246000fd5b60006002820490506001821680612c1b57607f821691505b602082108103612c2e57612c2d612bd4565b5b50919050565b7f50726f6f665265636f726465723a20696e76616c6964206f70657261746f722060008201527f6164647265737300000000000000000000000000000000000000000000000000602082015250565b6000612c90602783612675565b9150612c9b82612c34565b604082019050919050565b60006020820190508181036000830152612cbf81612c83565b9050919050565b600081519050612cd5816120ce565b92915050565b600060208284031215612cf157612cf06120ba565b5b6000612cff84828501612cc6565b91505092915050565b7f50726f6f665265636f726465723a20696e73756666696369656e742054696d6560008201527f32362062616c616e636500000000000000000000000000000000000000000000602082015250565b6000612d64602a83612675565b9150612d6f82612d08565b604082019050919050565b60006020820190508181036000830152612d9381612d57565b9050919050565b6000604082019050612daf6000830185612491565b612dbc6020830184612127565b9392505050565b6000606082019050612dd86000830186612491565b612de56020830185612491565b612df26040830184612127565b949350505050565b600081519050612e098161276d565b92915050565b600060208284031215612e2557612e246120ba565b5b6000612e3384828501612dfa565b91505092915050565b7f50726f6f665265636f726465723a20726f6f7420616c72656164792073657400600082015250565b6000612e72601f83612675565b9150612e7d82612e3c565b602082019050919050565b60006020820190508181036000830152612ea181612e65565b9050919050565b7f50726f6f665265636f726465723a20696e76616c69642074726561737572792060008201527f6164647265737300000000000000000000000000000000000000000000000000602082015250565b6000612f04602783612675565b9150612f0f82612ea8565b604082019050919050565b60006020820190508181036000830152612f3381612ef7565b9050919050565b6000612f45826120c4565b91507fffffffffffffffffffffffffffffffffffffffffffffffffffffffffffffffff8203612f7757612f76612806565b5b600182019050919050565b6000606082019050612f976000830186612491565b8181036020830152612fa981856126b0565b9050612fb86040830184612127565b949350505050565b60008190508160005260206000209050919050565b60006020601f8301049050919050565b600082821b905092915050565b6000600883026130227fffffffffffffffffffffffffffffffffffffffffffffffffffffffffffffffff82612fe5565b61302c8683612fe5565b95508019841693508086168417925050509392505050565b600061305f61305a613055846120c4565b6125b4565b6120c4565b9050919050565b6000819050919050565b61307983613044565b61308d61308582613066565b848454612ff2565b825550505050565b600090565b6130a2613095565b6130ad818484613070565b505050565b5b818110156130d1576130c660008261309a565b6001810190506130b3565b5050565b601f821115613116576130e781612fc0565b6130f084612fd5565b810160208510156130ff578190505b61311361310b85612fd5565b8301826130b2565b50505b505050565b600082821c905092915050565b60006131396000198460080261311b565b1980831691505092915050565b60006131528383613128565b9150826002028217905092915050565b61316b8261266a565b67ffffffffffffffff811115613184576131836121a2565b5b61318e8254612c03565b6131998282856130d5565b600060209050601f8311600181146131cc57600084156131ba578287015190505b6131c48582613146565b86555061322c565b601f1984166131da86612fc0565b60005b82811015613202578489015182556001820191506020850194506020810190506131dd565b8683101561321f578489015161321b601f891682613128565b8355505b6001600288020188555050505b505050505050565b600060a0820190506132496000830188612127565b818103602083015261325b81876126b0565b9050818103604083015261326f81866126b0565b9050818103606083015261328381856126b0565b90506132926080830184612127565b969550505050505056fea26469706673582212201f6c1999ab82856b2d1cdc0b7df9e310b3dfdc3f8fe456369d7b7db983cf578664736f6c634300081b0033",
  "linkReferences": {},
  "deployedLinkReferences": {}
}